{
  "_format": "hh-sol-artifact-1",
  "contractName": "Voting",
  "sourceName": "contracts/Voting.sol",
  "abi": [
    {
      "anonymous": false,
      "inputs": [
        {
          "indexed": false,
          "internalType": "uint8",
          "name": "version",
          "type": "uint8"
        }
      ],
      "name": "Initialized",
      "type": "event"
    },
    {
      "anonymous": false,
      "inputs": [
        {
          "indexed": false,
          "internalType": "string",
          "name": "name",
          "type": "string"
        },
        {
          "indexed": false,
          "internalType": "address",
          "name": "creator",
          "type": "address"
        }
      ],
      "name": "PersonalityCreated",
      "type": "event"
    },
    {
      "anonymous": false,
      "inputs": [
        {
          "indexed": false,
          "internalType": "string",
          "name": "name",
          "type": "string"
        }
      ],
      "name": "PersonalityRemoved",
      "type": "event"
    },
    {
      "anonymous": false,
      "inputs": [
        {
          "indexed": false,
          "internalType": "string",
          "name": "name",
          "type": "string"
        },
        {
          "indexed": false,
          "internalType": "uint256",
          "name": "upvotes",
          "type": "uint256"
        },
        {
          "indexed": false,
          "internalType": "uint256",
          "name": "downvotes",
          "type": "uint256"
        },
        {
          "indexed": false,
          "internalType": "address",
          "name": "voter",
          "type": "address"
        },
        {
          "indexed": false,
          "internalType": "int256",
          "name": "vote",
          "type": "int256"
        }
      ],
      "name": "VotingUpdated",
      "type": "event"
    },
    {
      "inputs": [
        {
          "internalType": "string",
          "name": "name",
          "type": "string"
        }
      ],
      "name": "createPersonality",
      "outputs": [],
      "stateMutability": "nonpayable",
      "type": "function"
    },
    {
      "inputs": [
        {
          "internalType": "address",
          "name": "",
          "type": "address"
        },
        {
          "internalType": "uint256",
          "name": "",
          "type": "uint256"
        }
      ],
      "name": "createdPersonalities",
      "outputs": [
        {
          "internalType": "string",
          "name": "",
          "type": "string"
        }
      ],
      "stateMutability": "view",
      "type": "function"
    },
    {
      "inputs": [
        {
          "internalType": "string",
          "name": "name",
          "type": "string"
        }
      ],
      "name": "downvote",
      "outputs": [],
      "stateMutability": "nonpayable",
      "type": "function"
    },
    {
      "inputs": [],
      "name": "initialize",
      "outputs": [],
      "stateMutability": "nonpayable",
      "type": "function"
    },
    {
      "inputs": [],
      "name": "maxPersonalityCreation",
      "outputs": [
        {
          "internalType": "uint256",
          "name": "",
          "type": "uint256"
        }
      ],
      "stateMutability": "view",
      "type": "function"
    },
    {
      "inputs": [],
      "name": "owner",
      "outputs": [
        {
          "internalType": "address",
          "name": "",
          "type": "address"
        }
      ],
      "stateMutability": "view",
      "type": "function"
    },
    {
      "inputs": [
        {
          "internalType": "string",
          "name": "",
          "type": "string"
        }
      ],
      "name": "personalities",
      "outputs": [
        {
          "internalType": "string",
          "name": "name",
          "type": "string"
        },
        {
          "internalType": "uint256",
          "name": "upvotes",
          "type": "uint256"
        },
        {
          "internalType": "uint256",
          "name": "downvotes",
          "type": "uint256"
        }
      ],
      "stateMutability": "view",
      "type": "function"
    },
    {
      "inputs": [
        {
          "internalType": "string",
          "name": "name",
          "type": "string"
        }
      ],
      "name": "removePersonality",
      "outputs": [],
      "stateMutability": "nonpayable",
      "type": "function"
    },
    {
      "inputs": [
        {
          "internalType": "string",
          "name": "name",
          "type": "string"
        }
      ],
      "name": "upvote",
      "outputs": [],
      "stateMutability": "nonpayable",
      "type": "function"
    },
    {
      "inputs": [
        {
          "internalType": "address",
          "name": "",
          "type": "address"
        },
        {
          "internalType": "string",
          "name": "",
          "type": "string"
        }
      ],
      "name": "votes",
      "outputs": [
        {
          "internalType": "int256",
          "name": "",
          "type": "int256"
        }
      ],
      "stateMutability": "view",
      "type": "function"
    }
  ],
  "bytecode": "0x608060405234801561001057600080fd5b50611cba806100206000396000f3fe608060405234801561001057600080fd5b506004361061009e5760003560e01c806360bde8331161006657806360bde8331461016d5780638129fc1c146101895780638374d7d5146101935780638da5cb5b146101af578063d7b60632146101cd5761009e565b80630b0d5d3c146100a35780630e90a1e0146100bf5780633de87871146100f157806342a63410146101215780635102d5e21461013d575b600080fd5b6100bd60048036038101906100b891906110c3565b6101eb565b005b6100d960048036038101906100d491906110c3565b6103f7565b6040516100e8939291906111a4565b60405180910390f35b61010b60048036038101906101069190611240565b6104bf565b60405161011891906112b5565b60405180910390f35b61013b600480360381019061013691906110c3565b6104fa565b005b610157600480360381019061015291906112fc565b610675565b604051610164919061133c565b60405180910390f35b610187600480360381019061018291906110c3565b61072e565b005b610191610a17565b005b6101ad60048036038101906101a891906110c3565b610b96565b005b6101b7610ebd565b6040516101c4919061136d565b60405180910390f35b6101d5610ee3565b6040516101e29190611388565b60405180910390f35b600154600260003373ffffffffffffffffffffffffffffffffffffffff1673ffffffffffffffffffffffffffffffffffffffff1681526020019081526020016000208054905010610271576040517f08c379a000000000000000000000000000000000000000000000000000000000815260040161026890611415565b60405180910390fd5b60006003826040516102839190611471565b9081526020016040518091039020600001805461029f906114b7565b9050146102e1576040517f08c379a00000000000000000000000000000000000000000000000000000000081526004016102d890611534565b60405180910390fd5b604051806060016040528082815260200160008152602001600081525060038260405161030e9190611471565b908152602001604051809103902060008201518160000190816103319190611700565b506020820151816001015560408201518160020155905050600260003373ffffffffffffffffffffffffffffffffffffffff1673ffffffffffffffffffffffffffffffffffffffff168152602001908152602001600020819080600181540180825580915050600190039060005260206000200160009091909190915090816103ba9190611700565b507f56f808757391a21d313ae2868939c055e19d01b7e48e33691b847117774d141f81336040516103ec9291906117d2565b60405180910390a150565b600381805160208101820180518482526020830160208501208183528095505050505050600091509050806000018054610430906114b7565b80601f016020809104026020016040519081016040528092919081815260200182805461045c906114b7565b80156104a95780601f1061047e576101008083540402835291602001916104a9565b820191906000526020600020905b81548152906001019060200180831161048c57829003601f168201915b5050505050908060010154908060020154905083565b600460205281600052604060002081805160208101820180518482526020830160208501208183528095505050505050600091509150505481565b600060029054906101000a900473ffffffffffffffffffffffffffffffffffffffff1673ffffffffffffffffffffffffffffffffffffffff163373ffffffffffffffffffffffffffffffffffffffff161461058a576040517f08c379a000000000000000000000000000000000000000000000000000000000815260040161058190611874565b60405180910390fd5b600060038260405161059c9190611471565b908152602001604051809103902060000180546105b8906114b7565b9050036105fa576040517f08c379a00000000000000000000000000000000000000000000000000000000081526004016105f1906118e0565b60405180910390fd5b60038160405161060a9190611471565b9081526020016040518091039020600080820160006106299190610f0c565b6001820160009055600282016000905550507f69baa899b5fa97d43acbb1a8f9b7439cf0cf083f0a55ede3d7169f544bbacde48160405161066a919061133c565b60405180910390a150565b6002602052816000526040600020818154811061069157600080fd5b906000526020600020016000915091505080546106ad906114b7565b80601f01602080910402602001604051908101604052809291908181526020018280546106d9906114b7565b80156107265780601f106106fb57610100808354040283529160200191610726565b820191906000526020600020905b81548152906001019060200180831161070957829003601f168201915b505050505081565b60006003826040516107409190611471565b9081526020016040518091039020600001805461075c906114b7565b90500361079e576040517f08c379a0000000000000000000000000000000000000000000000000000000008152600401610795906118e0565b60405180910390fd5b6001600460003373ffffffffffffffffffffffffffffffffffffffff1673ffffffffffffffffffffffffffffffffffffffff168152602001908152602001600020826040516107ed9190611471565b9081526020016040518091039020540361083c576040517f08c379a00000000000000000000000000000000000000000000000000000000081526004016108339061194c565b60405180910390fd5b7fffffffffffffffffffffffffffffffffffffffffffffffffffffffffffffffff600460003373ffffffffffffffffffffffffffffffffffffffff1673ffffffffffffffffffffffffffffffffffffffff168152602001908152602001600020826040516108aa9190611471565b908152602001604051809103902054036108f85760016003826040516108d09190611471565b908152602001604051809103902060020160008282546108f0919061199b565b925050819055505b600160038260405161090a9190611471565b9081526020016040518091039020600101600082825461092a91906119cf565b925050819055506001600460003373ffffffffffffffffffffffffffffffffffffffff1673ffffffffffffffffffffffffffffffffffffffff168152602001908152602001600020826040516109809190611471565b9081526020016040518091039020819055507f466fa61abab2c73b5b989adb6c1ca7eb7b8825c16866513e023e2dcae96ced88816003836040516109c49190611471565b9081526020016040518091039020600101546003846040516109e69190611471565b908152602001604051809103902060020154336001604051610a0c959493929190611a3e565b60405180910390a150565b60008060019054906101000a900460ff16159050808015610a485750600160008054906101000a900460ff1660ff16105b80610a755750610a5730610ee9565b158015610a745750600160008054906101000a900460ff1660ff16145b5b610ab4576040517f08c379a0000000000000000000000000000000000000000000000000000000008152600401610aab90611b0a565b60405180910390fd5b60016000806101000a81548160ff021916908360ff1602179055508015610af1576001600060016101000a81548160ff0219169083151502179055505b33600060026101000a81548173ffffffffffffffffffffffffffffffffffffffff021916908373ffffffffffffffffffffffffffffffffffffffff16021790555060646001819055508015610b935760008060016101000a81548160ff0219169083151502179055507f7f26b83ff96e1f2b6a682f133852f6798a09c465da95921460cefb38474024986001604051610b8a9190611b68565b60405180910390a15b50565b6000600382604051610ba89190611471565b90815260200160405180910390206000018054610bc4906114b7565b905003610c06576040517f08c379a0000000000000000000000000000000000000000000000000000000008152600401610bfd906118e0565b60405180910390fd5b7fffffffffffffffffffffffffffffffffffffffffffffffffffffffffffffffff600460003373ffffffffffffffffffffffffffffffffffffffff1673ffffffffffffffffffffffffffffffffffffffff16815260200190815260200160002082604051610c749190611471565b90815260200160405180910390205403610cc3576040517f08c379a0000000000000000000000000000000000000000000000000000000008152600401610cba90611bcf565b60405180910390fd5b6001600460003373ffffffffffffffffffffffffffffffffffffffff1673ffffffffffffffffffffffffffffffffffffffff16815260200190815260200160002082604051610d129190611471565b90815260200160405180910390205403610d60576001600382604051610d389190611471565b90815260200160405180910390206001016000828254610d58919061199b565b925050819055505b6001600382604051610d729190611471565b90815260200160405180910390206002016000828254610d9291906119cf565b925050819055507fffffffffffffffffffffffffffffffffffffffffffffffffffffffffffffffff600460003373ffffffffffffffffffffffffffffffffffffffff1673ffffffffffffffffffffffffffffffffffffffff16815260200190815260200160002082604051610e079190611471565b9081526020016040518091039020819055507f466fa61abab2c73b5b989adb6c1ca7eb7b8825c16866513e023e2dcae96ced8881600383604051610e4b9190611471565b908152602001604051809103902060010154600384604051610e6d9190611471565b908152602001604051809103902060020154337fffffffffffffffffffffffffffffffffffffffffffffffffffffffffffffffff604051610eb2959493929190611c2a565b60405180910390a150565b600060029054906101000a900473ffffffffffffffffffffffffffffffffffffffff1681565b60015481565b6000808273ffffffffffffffffffffffffffffffffffffffff163b119050919050565b508054610f18906114b7565b6000825580601f10610f2a5750610f49565b601f016020900490600052602060002090810190610f489190610f4c565b5b50565b5b80821115610f65576000816000905550600101610f4d565b5090565b6000604051905090565b600080fd5b600080fd5b600080fd5b600080fd5b6000601f19601f8301169050919050565b7f4e487b7100000000000000000000000000000000000000000000000000000000600052604160045260246000fd5b610fd082610f87565b810181811067ffffffffffffffff82111715610fef57610fee610f98565b5b80604052505050565b6000611002610f69565b905061100e8282610fc7565b919050565b600067ffffffffffffffff82111561102e5761102d610f98565b5b61103782610f87565b9050602081019050919050565b82818337600083830152505050565b600061106661106184611013565b610ff8565b90508281526020810184848401111561108257611081610f82565b5b61108d848285611044565b509392505050565b600082601f8301126110aa576110a9610f7d565b5b81356110ba848260208601611053565b91505092915050565b6000602082840312156110d9576110d8610f73565b5b600082013567ffffffffffffffff8111156110f7576110f6610f78565b5b61110384828501611095565b91505092915050565b600081519050919050565b600082825260208201905092915050565b60005b8381101561114657808201518184015260208101905061112b565b60008484015250505050565b600061115d8261110c565b6111678185611117565b9350611177818560208601611128565b61118081610f87565b840191505092915050565b6000819050919050565b61119e8161118b565b82525050565b600060608201905081810360008301526111be8186611152565b90506111cd6020830185611195565b6111da6040830184611195565b949350505050565b600073ffffffffffffffffffffffffffffffffffffffff82169050919050565b600061120d826111e2565b9050919050565b61121d81611202565b811461122857600080fd5b50565b60008135905061123a81611214565b92915050565b6000806040838503121561125757611256610f73565b5b60006112658582860161122b565b925050602083013567ffffffffffffffff81111561128657611285610f78565b5b61129285828601611095565b9150509250929050565b6000819050919050565b6112af8161129c565b82525050565b60006020820190506112ca60008301846112a6565b92915050565b6112d98161118b565b81146112e457600080fd5b50565b6000813590506112f6816112d0565b92915050565b6000806040838503121561131357611312610f73565b5b60006113218582860161122b565b9250506020611332858286016112e7565b9150509250929050565b600060208201905081810360008301526113568184611152565b905092915050565b61136781611202565b82525050565b6000602082019050611382600083018461135e565b92915050565b600060208201905061139d6000830184611195565b92915050565b7f4d6178696d756d20706572736f6e616c697479206372656174696f6e206c696d60008201527f697420726561636865642e000000000000000000000000000000000000000000602082015250565b60006113ff602b83611117565b915061140a826113a3565b604082019050919050565b6000602082019050818103600083015261142e816113f2565b9050919050565b600081905092915050565b600061144b8261110c565b6114558185611435565b9350611465818560208601611128565b80840191505092915050565b600061147d8284611440565b915081905092915050565b7f4e487b7100000000000000000000000000000000000000000000000000000000600052602260045260246000fd5b600060028204905060018216806114cf57607f821691505b6020821081036114e2576114e1611488565b5b50919050565b7f506572736f6e616c69747920616c726561647920657869737473000000000000600082015250565b600061151e601a83611117565b9150611529826114e8565b602082019050919050565b6000602082019050818103600083015261154d81611511565b9050919050565b60008190508160005260206000209050919050565b60006020601f8301049050919050565b600082821b905092915050565b6000600883026115b67fffffffffffffffffffffffffffffffffffffffffffffffffffffffffffffffff82611579565b6115c08683611579565b95508019841693508086168417925050509392505050565b6000819050919050565b60006115fd6115f86115f38461118b565b6115d8565b61118b565b9050919050565b6000819050919050565b611617836115e2565b61162b61162382611604565b848454611586565b825550505050565b600090565b611640611633565b61164b81848461160e565b505050565b5b8181101561166f57611664600082611638565b600181019050611651565b5050565b601f8211156116b45761168581611554565b61168e84611569565b8101602085101561169d578190505b6116b16116a985611569565b830182611650565b50505b505050565b600082821c905092915050565b60006116d7600019846008026116b9565b1980831691505092915050565b60006116f083836116c6565b9150826002028217905092915050565b6117098261110c565b67ffffffffffffffff81111561172257611721610f98565b5b61172c82546114b7565b611737828285611673565b600060209050601f83116001811461176a5760008415611758578287015190505b61176285826116e4565b8655506117ca565b601f19841661177886611554565b60005b828110156117a05784890151825560018201915060208501945060208101905061177b565b868310156117bd57848901516117b9601f8916826116c6565b8355505b6001600288020188555050505b505050505050565b600060408201905081810360008301526117ec8185611152565b90506117fb602083018461135e565b9392505050565b7f4f6e6c7920746865206f776e65722063616e2072656d6f76652061207065727360008201527f6f6e616c6974792e000000000000000000000000000000000000000000000000602082015250565b600061185e602883611117565b915061186982611802565b604082019050919050565b6000602082019050818103600083015261188d81611851565b9050919050565b7f506572736f6e616c69747920646f6573206e6f74206578697374000000000000600082015250565b60006118ca601a83611117565b91506118d582611894565b602082019050919050565b600060208201905081810360008301526118f9816118bd565b9050919050565b7f416c7265616479207570766f7465640000000000000000000000000000000000600082015250565b6000611936600f83611117565b915061194182611900565b602082019050919050565b6000602082019050818103600083015261196581611929565b9050919050565b7f4e487b7100000000000000000000000000000000000000000000000000000000600052601160045260246000fd5b60006119a68261118b565b91506119b18361118b565b92508282039050818111156119c9576119c861196c565b5b92915050565b60006119da8261118b565b91506119e58361118b565b92508282019050808211156119fd576119fc61196c565b5b92915050565b6000819050919050565b6000611a28611a23611a1e84611a03565b6115d8565b61129c565b9050919050565b611a3881611a0d565b82525050565b600060a0820190508181036000830152611a588188611152565b9050611a676020830187611195565b611a746040830186611195565b611a81606083018561135e565b611a8e6080830184611a2f565b9695505050505050565b7f496e697469616c697a61626c653a20636f6e747261637420697320616c72656160008201527f647920696e697469616c697a6564000000000000000000000000000000000000602082015250565b6000611af4602e83611117565b9150611aff82611a98565b604082019050919050565b60006020820190508181036000830152611b2381611ae7565b9050919050565b600060ff82169050919050565b6000611b52611b4d611b4884611a03565b6115d8565b611b2a565b9050919050565b611b6281611b37565b82525050565b6000602082019050611b7d6000830184611b59565b92915050565b7f416c726561647920646f776e766f746564000000000000000000000000000000600082015250565b6000611bb9601183611117565b9150611bc482611b83565b602082019050919050565b60006020820190508181036000830152611be881611bac565b9050919050565b6000819050919050565b6000611c14611c0f611c0a84611bef565b6115d8565b61129c565b9050919050565b611c2481611bf9565b82525050565b600060a0820190508181036000830152611c448188611152565b9050611c536020830187611195565b611c606040830186611195565b611c6d606083018561135e565b611c7a6080830184611c1b565b969550505050505056fea26469706673582212209071b0cd77b20cdc3336893dff5a9cd890c73bb25d56716e4dce100ed5ca2ad864736f6c63430008120033",
  "linkReferences": {},
  "deployedLinkReferences": {}
}