{
  "_format": "hh-sol-artifact-1",
  "contractName": "Voting",
  "sourceName": "contracts/Voting.sol",
  "abi": [
    {
      "anonymous": false,
      "inputs": [
        {
          "indexed": false,
          "internalType": "string",
          "name": "name",
          "type": "string"
        },
        {
          "indexed": false,
          "internalType": "address",
          "name": "creator",
          "type": "address"
        }
      ],
      "name": "PersonalityCreated",
      "type": "event"
    },
    {
      "anonymous": false,
      "inputs": [
        {
          "indexed": false,
          "internalType": "string",
          "name": "name",
          "type": "string"
        },
        {
          "indexed": false,
          "internalType": "uint256",
          "name": "upvotes",
          "type": "uint256"
        },
        {
          "indexed": false,
          "internalType": "uint256",
          "name": "downvotes",
          "type": "uint256"
        },
        {
          "indexed": false,
          "internalType": "address",
          "name": "voter",
          "type": "address"
        },
        {
          "indexed": false,
          "internalType": "int256",
          "name": "vote",
          "type": "int256"
        }
      ],
      "name": "VotingUpdated",
      "type": "event"
    },
    {
      "inputs": [
        {
          "internalType": "string",
          "name": "name",
          "type": "string"
        }
      ],
      "name": "createPersonality",
      "outputs": [],
      "stateMutability": "nonpayable",
      "type": "function"
    },
    {
      "inputs": [
        {
          "internalType": "string",
          "name": "name",
          "type": "string"
        }
      ],
      "name": "downvote",
      "outputs": [],
      "stateMutability": "nonpayable",
      "type": "function"
    },
    {
      "inputs": [
        {
          "internalType": "string",
          "name": "",
          "type": "string"
        }
      ],
      "name": "personalities",
      "outputs": [
        {
          "internalType": "string",
          "name": "name",
          "type": "string"
        },
        {
          "internalType": "uint256",
          "name": "upvotes",
          "type": "uint256"
        },
        {
          "internalType": "uint256",
          "name": "downvotes",
          "type": "uint256"
        }
      ],
      "stateMutability": "view",
      "type": "function"
    },
    {
      "inputs": [
        {
          "internalType": "string",
          "name": "name",
          "type": "string"
        }
      ],
      "name": "upvote",
      "outputs": [],
      "stateMutability": "nonpayable",
      "type": "function"
    },
    {
      "inputs": [
        {
          "internalType": "address",
          "name": "",
          "type": "address"
        },
        {
          "internalType": "string",
          "name": "",
          "type": "string"
        }
      ],
      "name": "votes",
      "outputs": [
        {
          "internalType": "int256",
          "name": "",
          "type": "int256"
        }
      ],
      "stateMutability": "view",
      "type": "function"
    }
  ],
  "bytecode": "0x608060405234801561001057600080fd5b506113b1806100206000396000f3fe608060405234801561001057600080fd5b50600436106100575760003560e01c80630b0d5d3c1461005c5780630e90a1e0146100785780633de87871146100aa57806360bde833146100da5780638374d7d5146100f6575b600080fd5b61007660048036038101906100719190610a8d565b610112565b005b610092600480360381019061008d9190610a8d565b610225565b6040516100a193929190610b6e565b60405180910390f35b6100c460048036038101906100bf9190610c0a565b6102ed565b6040516100d19190610c7f565b60405180910390f35b6100f460048036038101906100ef9190610a8d565b610328565b005b610110600480360381019061010b9190610a8d565b61060e565b005b600080826040516101239190610cd6565b9081526020016040518091039020600001805461013f90610d1c565b905014610181576040517f08c379a000000000000000000000000000000000000000000000000000000000815260040161017890610d99565b60405180910390fd5b60405180606001604052808281526020016000815260200160008152506000826040516101ae9190610cd6565b908152602001604051809103902060008201518160000190816101d19190610f65565b5060208201518160010155604082015181600201559050507f56f808757391a21d313ae2868939c055e19d01b7e48e33691b847117774d141f813360405161021a929190611046565b60405180910390a150565b60008180516020810182018051848252602083016020850120818352809550505050505060009150905080600001805461025e90610d1c565b80601f016020809104026020016040519081016040528092919081815260200182805461028a90610d1c565b80156102d75780601f106102ac576101008083540402835291602001916102d7565b820191906000526020600020905b8154815290600101906020018083116102ba57829003601f168201915b5050505050908060010154908060020154905083565b600160205281600052604060002081805160208101820180518482526020830160208501208183528095505050505050600091509150505481565b600080826040516103399190610cd6565b9081526020016040518091039020600001805461035590610d1c565b905003610397576040517f08c379a000000000000000000000000000000000000000000000000000000000815260040161038e906110c2565b60405180910390fd5b60018060003373ffffffffffffffffffffffffffffffffffffffff1673ffffffffffffffffffffffffffffffffffffffff168152602001908152602001600020826040516103e59190610cd6565b90815260200160405180910390205403610434576040517f08c379a000000000000000000000000000000000000000000000000000000000815260040161042b9061112e565b60405180910390fd5b7fffffffffffffffffffffffffffffffffffffffffffffffffffffffffffffffff600160003373ffffffffffffffffffffffffffffffffffffffff1673ffffffffffffffffffffffffffffffffffffffff168152602001908152602001600020826040516104a29190610cd6565b908152602001604051809103902054036104f05760016000826040516104c89190610cd6565b908152602001604051809103902060020160008282546104e8919061117d565b925050819055505b60016000826040516105029190610cd6565b9081526020016040518091039020600101600082825461052291906111b1565b9250508190555060018060003373ffffffffffffffffffffffffffffffffffffffff1673ffffffffffffffffffffffffffffffffffffffff168152602001908152602001600020826040516105779190610cd6565b9081526020016040518091039020819055507f466fa61abab2c73b5b989adb6c1ca7eb7b8825c16866513e023e2dcae96ced88816000836040516105bb9190610cd6565b9081526020016040518091039020600101546000846040516105dd9190610cd6565b908152602001604051809103902060020154336001604051610603959493929190611220565b60405180910390a150565b6000808260405161061f9190610cd6565b9081526020016040518091039020600001805461063b90610d1c565b90500361067d576040517f08c379a0000000000000000000000000000000000000000000000000000000008152600401610674906110c2565b60405180910390fd5b7fffffffffffffffffffffffffffffffffffffffffffffffffffffffffffffffff600160003373ffffffffffffffffffffffffffffffffffffffff1673ffffffffffffffffffffffffffffffffffffffff168152602001908152602001600020826040516106eb9190610cd6565b9081526020016040518091039020540361073a576040517f08c379a0000000000000000000000000000000000000000000000000000000008152600401610731906112c6565b60405180910390fd5b60018060003373ffffffffffffffffffffffffffffffffffffffff1673ffffffffffffffffffffffffffffffffffffffff168152602001908152602001600020826040516107889190610cd6565b908152602001604051809103902054036107d65760016000826040516107ae9190610cd6565b908152602001604051809103902060010160008282546107ce919061117d565b925050819055505b60016000826040516107e89190610cd6565b9081526020016040518091039020600201600082825461080891906111b1565b925050819055507fffffffffffffffffffffffffffffffffffffffffffffffffffffffffffffffff600160003373ffffffffffffffffffffffffffffffffffffffff1673ffffffffffffffffffffffffffffffffffffffff1681526020019081526020016000208260405161087d9190610cd6565b9081526020016040518091039020819055507f466fa61abab2c73b5b989adb6c1ca7eb7b8825c16866513e023e2dcae96ced88816000836040516108c19190610cd6565b9081526020016040518091039020600101546000846040516108e39190610cd6565b908152602001604051809103902060020154337fffffffffffffffffffffffffffffffffffffffffffffffffffffffffffffffff604051610928959493929190611321565b60405180910390a150565b6000604051905090565b600080fd5b600080fd5b600080fd5b600080fd5b6000601f19601f8301169050919050565b7f4e487b7100000000000000000000000000000000000000000000000000000000600052604160045260246000fd5b61099a82610951565b810181811067ffffffffffffffff821117156109b9576109b8610962565b5b80604052505050565b60006109cc610933565b90506109d88282610991565b919050565b600067ffffffffffffffff8211156109f8576109f7610962565b5b610a0182610951565b9050602081019050919050565b82818337600083830152505050565b6000610a30610a2b846109dd565b6109c2565b905082815260208101848484011115610a4c57610a4b61094c565b5b610a57848285610a0e565b509392505050565b600082601f830112610a7457610a73610947565b5b8135610a84848260208601610a1d565b91505092915050565b600060208284031215610aa357610aa261093d565b5b600082013567ffffffffffffffff811115610ac157610ac0610942565b5b610acd84828501610a5f565b91505092915050565b600081519050919050565b600082825260208201905092915050565b60005b83811015610b10578082015181840152602081019050610af5565b60008484015250505050565b6000610b2782610ad6565b610b318185610ae1565b9350610b41818560208601610af2565b610b4a81610951565b840191505092915050565b6000819050919050565b610b6881610b55565b82525050565b60006060820190508181036000830152610b888186610b1c565b9050610b976020830185610b5f565b610ba46040830184610b5f565b949350505050565b600073ffffffffffffffffffffffffffffffffffffffff82169050919050565b6000610bd782610bac565b9050919050565b610be781610bcc565b8114610bf257600080fd5b50565b600081359050610c0481610bde565b92915050565b60008060408385031215610c2157610c2061093d565b5b6000610c2f85828601610bf5565b925050602083013567ffffffffffffffff811115610c5057610c4f610942565b5b610c5c85828601610a5f565b9150509250929050565b6000819050919050565b610c7981610c66565b82525050565b6000602082019050610c946000830184610c70565b92915050565b600081905092915050565b6000610cb082610ad6565b610cba8185610c9a565b9350610cca818560208601610af2565b80840191505092915050565b6000610ce28284610ca5565b915081905092915050565b7f4e487b7100000000000000000000000000000000000000000000000000000000600052602260045260246000fd5b60006002820490506001821680610d3457607f821691505b602082108103610d4757610d46610ced565b5b50919050565b7f506572736f6e616c69747920616c726561647920657869737473000000000000600082015250565b6000610d83601a83610ae1565b9150610d8e82610d4d565b602082019050919050565b60006020820190508181036000830152610db281610d76565b9050919050565b60008190508160005260206000209050919050565b60006020601f8301049050919050565b600082821b905092915050565b600060088302610e1b7fffffffffffffffffffffffffffffffffffffffffffffffffffffffffffffffff82610dde565b610e258683610dde565b95508019841693508086168417925050509392505050565b6000819050919050565b6000610e62610e5d610e5884610b55565b610e3d565b610b55565b9050919050565b6000819050919050565b610e7c83610e47565b610e90610e8882610e69565b848454610deb565b825550505050565b600090565b610ea5610e98565b610eb0818484610e73565b505050565b5b81811015610ed457610ec9600082610e9d565b600181019050610eb6565b5050565b601f821115610f1957610eea81610db9565b610ef384610dce565b81016020851015610f02578190505b610f16610f0e85610dce565b830182610eb5565b50505b505050565b600082821c905092915050565b6000610f3c60001984600802610f1e565b1980831691505092915050565b6000610f558383610f2b565b9150826002028217905092915050565b610f6e82610ad6565b67ffffffffffffffff811115610f8757610f86610962565b5b610f918254610d1c565b610f9c828285610ed8565b600060209050601f831160018114610fcf5760008415610fbd578287015190505b610fc78582610f49565b86555061102f565b601f198416610fdd86610db9565b60005b8281101561100557848901518255600182019150602085019450602081019050610fe0565b86831015611022578489015161101e601f891682610f2b565b8355505b6001600288020188555050505b505050505050565b61104081610bcc565b82525050565b600060408201905081810360008301526110608185610b1c565b905061106f6020830184611037565b9392505050565b7f506572736f6e616c69747920646f6573206e6f74206578697374000000000000600082015250565b60006110ac601a83610ae1565b91506110b782611076565b602082019050919050565b600060208201905081810360008301526110db8161109f565b9050919050565b7f416c7265616479207570766f7465640000000000000000000000000000000000600082015250565b6000611118600f83610ae1565b9150611123826110e2565b602082019050919050565b600060208201905081810360008301526111478161110b565b9050919050565b7f4e487b7100000000000000000000000000000000000000000000000000000000600052601160045260246000fd5b600061118882610b55565b915061119383610b55565b92508282039050818111156111ab576111aa61114e565b5b92915050565b60006111bc82610b55565b91506111c783610b55565b92508282019050808211156111df576111de61114e565b5b92915050565b6000819050919050565b600061120a611205611200846111e5565b610e3d565b610c66565b9050919050565b61121a816111ef565b82525050565b600060a082019050818103600083015261123a8188610b1c565b90506112496020830187610b5f565b6112566040830186610b5f565b6112636060830185611037565b6112706080830184611211565b9695505050505050565b7f416c726561647920646f776e766f746564000000000000000000000000000000600082015250565b60006112b0601183610ae1565b91506112bb8261127a565b602082019050919050565b600060208201905081810360008301526112df816112a3565b9050919050565b6000819050919050565b600061130b611306611301846112e6565b610e3d565b610c66565b9050919050565b61131b816112f0565b82525050565b600060a082019050818103600083015261133b8188610b1c565b905061134a6020830187610b5f565b6113576040830186610b5f565b6113646060830185611037565b6113716080830184611312565b969550505050505056fea2646970667358221220cdeaef52cbaa998d5ce096bcdb20dd22e2e4feae9a8a7fbf2715be809347095864736f6c63430008120033",
  "linkReferences": {},
  "deployedLinkReferences": {}
}