{
  "_format": "hh-sol-artifact-1",
  "contractName": "Voting",
  "sourceName": "contracts/Voting.sol",
  "abi": [
    {
      "anonymous": false,
      "inputs": [
        {
          "indexed": false,
          "internalType": "string",
          "name": "name",
          "type": "string"
        }
      ],
      "name": "PersonalityCreated",
      "type": "event"
    },
    {
      "anonymous": false,
      "inputs": [
        {
          "indexed": false,
          "internalType": "string",
          "name": "name",
          "type": "string"
        },
        {
          "indexed": false,
          "internalType": "uint256",
          "name": "upvotes",
          "type": "uint256"
        },
        {
          "indexed": false,
          "internalType": "uint256",
          "name": "downvotes",
          "type": "uint256"
        }
      ],
      "name": "VotingUpdated",
      "type": "event"
    },
    {
      "inputs": [
        {
          "internalType": "string",
          "name": "name",
          "type": "string"
        },
        {
          "internalType": "string",
          "name": "about",
          "type": "string"
        }
      ],
      "name": "createPersonality",
      "outputs": [],
      "stateMutability": "nonpayable",
      "type": "function"
    },
    {
      "inputs": [
        {
          "internalType": "string",
          "name": "name",
          "type": "string"
        }
      ],
      "name": "downvote",
      "outputs": [],
      "stateMutability": "nonpayable",
      "type": "function"
    },
    {
      "inputs": [
        {
          "internalType": "string",
          "name": "",
          "type": "string"
        }
      ],
      "name": "personalities",
      "outputs": [
        {
          "internalType": "string",
          "name": "name",
          "type": "string"
        },
        {
          "internalType": "uint256",
          "name": "upvotes",
          "type": "uint256"
        },
        {
          "internalType": "uint256",
          "name": "downvotes",
          "type": "uint256"
        },
        {
          "internalType": "string",
          "name": "about",
          "type": "string"
        }
      ],
      "stateMutability": "view",
      "type": "function"
    },
    {
      "inputs": [
        {
          "internalType": "string",
          "name": "name",
          "type": "string"
        }
      ],
      "name": "upvote",
      "outputs": [],
      "stateMutability": "nonpayable",
      "type": "function"
    },
    {
      "inputs": [
        {
          "internalType": "address",
          "name": "",
          "type": "address"
        },
        {
          "internalType": "string",
          "name": "",
          "type": "string"
        }
      ],
      "name": "votes",
      "outputs": [
        {
          "internalType": "bool",
          "name": "",
          "type": "bool"
        }
      ],
      "stateMutability": "view",
      "type": "function"
    }
  ],
  "bytecode": "0x608060405234801561001057600080fd5b506111c8806100206000396000f3fe608060405234801561001057600080fd5b50600436106100575760003560e01c80630e90a1e01461005c5780633de878711461008f57806360bde833146100bf5780638374d7d5146100db578063850c81b3146100f7575b600080fd5b610076600480360381019061007191906109be565b610113565b6040516100869493929190610a9f565b60405180910390f35b6100a960048036038101906100a49190610b50565b610269565b6040516100b69190610bc7565b60405180910390f35b6100d960048036038101906100d491906109be565b6102ae565b005b6100f560048036038101906100f091906109be565b6104f2565b005b610111600480360381019061010c9190610be2565b610736565b005b60008180516020810182018051848252602083016020850120818352809550505050505060009150905080600001805461014c90610c89565b80601f016020809104026020016040519081016040528092919081815260200182805461017890610c89565b80156101c55780601f1061019a576101008083540402835291602001916101c5565b820191906000526020600020905b8154815290600101906020018083116101a857829003601f168201915b5050505050908060010154908060020154908060030180546101e690610c89565b80601f016020809104026020016040519081016040528092919081815260200182805461021290610c89565b801561025f5780601f106102345761010080835404028352916020019161025f565b820191906000526020600020905b81548152906001019060200180831161024257829003601f168201915b5050505050905084565b6001602052816000526040600020818051602081018201805184825260208301602085012081835280955050505050506000915091509054906101000a900460ff1681565b600080826040516102bf9190610cf6565b908152602001604051809103902060000180546102db90610c89565b90500361031d576040517f08c379a000000000000000000000000000000000000000000000000000000000815260040161031490610d59565b60405180910390fd5b600160003373ffffffffffffffffffffffffffffffffffffffff1673ffffffffffffffffffffffffffffffffffffffff1681526020019081526020016000208160405161036a9190610cf6565b908152602001604051809103902060009054906101000a900460ff16156103c6576040517f08c379a00000000000000000000000000000000000000000000000000000000081526004016103bd90610dc5565b60405180910390fd5b60016000826040516103d89190610cf6565b908152602001604051809103902060010160008282546103f89190610e14565b9250508190555060018060003373ffffffffffffffffffffffffffffffffffffffff1673ffffffffffffffffffffffffffffffffffffffff1681526020019081526020016000208260405161044d9190610cf6565b908152602001604051809103902060006101000a81548160ff0219169083151502179055507f8ad2513c45c2a8e1c7c887682f57bfd0d183c1e3019a5b52ffc6fa2e4fdd6218816000836040516104a49190610cf6565b9081526020016040518091039020600101546000846040516104c69190610cf6565b9081526020016040518091039020600201546040516104e793929190610e48565b60405180910390a150565b600080826040516105039190610cf6565b9081526020016040518091039020600001805461051f90610c89565b905003610561576040517f08c379a000000000000000000000000000000000000000000000000000000000815260040161055890610d59565b60405180910390fd5b600160003373ffffffffffffffffffffffffffffffffffffffff1673ffffffffffffffffffffffffffffffffffffffff168152602001908152602001600020816040516105ae9190610cf6565b908152602001604051809103902060009054906101000a900460ff161561060a576040517f08c379a000000000000000000000000000000000000000000000000000000000815260040161060190610dc5565b60405180910390fd5b600160008260405161061c9190610cf6565b9081526020016040518091039020600201600082825461063c9190610e14565b9250508190555060018060003373ffffffffffffffffffffffffffffffffffffffff1673ffffffffffffffffffffffffffffffffffffffff168152602001908152602001600020826040516106919190610cf6565b908152602001604051809103902060006101000a81548160ff0219169083151502179055507f8ad2513c45c2a8e1c7c887682f57bfd0d183c1e3019a5b52ffc6fa2e4fdd6218816000836040516106e89190610cf6565b90815260200160405180910390206001015460008460405161070a9190610cf6565b90815260200160405180910390206002015460405161072b93929190610e48565b60405180910390a150565b600080836040516107479190610cf6565b9081526020016040518091039020600001805461076390610c89565b9050146107a5576040517f08c379a000000000000000000000000000000000000000000000000000000000815260040161079c90610ed2565b60405180910390fd5b60405180608001604052808381526020016000815260200160008152602001828152506000836040516107d89190610cf6565b908152602001604051809103902060008201518160000190816107fb919061109e565b5060208201518160010155604082015181600201556060820151816003019081610825919061109e565b509050507fa7ff89417980ab937d84a0edc98eb99216b459ffe40ee8bc0a7aa8a46bc1a997826040516108589190611170565b60405180910390a15050565b6000604051905090565b600080fd5b600080fd5b600080fd5b600080fd5b6000601f19601f8301169050919050565b7f4e487b7100000000000000000000000000000000000000000000000000000000600052604160045260246000fd5b6108cb82610882565b810181811067ffffffffffffffff821117156108ea576108e9610893565b5b80604052505050565b60006108fd610864565b905061090982826108c2565b919050565b600067ffffffffffffffff82111561092957610928610893565b5b61093282610882565b9050602081019050919050565b82818337600083830152505050565b600061096161095c8461090e565b6108f3565b90508281526020810184848401111561097d5761097c61087d565b5b61098884828561093f565b509392505050565b600082601f8301126109a5576109a4610878565b5b81356109b584826020860161094e565b91505092915050565b6000602082840312156109d4576109d361086e565b5b600082013567ffffffffffffffff8111156109f2576109f1610873565b5b6109fe84828501610990565b91505092915050565b600081519050919050565b600082825260208201905092915050565b60005b83811015610a41578082015181840152602081019050610a26565b60008484015250505050565b6000610a5882610a07565b610a628185610a12565b9350610a72818560208601610a23565b610a7b81610882565b840191505092915050565b6000819050919050565b610a9981610a86565b82525050565b60006080820190508181036000830152610ab98187610a4d565b9050610ac86020830186610a90565b610ad56040830185610a90565b8181036060830152610ae78184610a4d565b905095945050505050565b600073ffffffffffffffffffffffffffffffffffffffff82169050919050565b6000610b1d82610af2565b9050919050565b610b2d81610b12565b8114610b3857600080fd5b50565b600081359050610b4a81610b24565b92915050565b60008060408385031215610b6757610b6661086e565b5b6000610b7585828601610b3b565b925050602083013567ffffffffffffffff811115610b9657610b95610873565b5b610ba285828601610990565b9150509250929050565b60008115159050919050565b610bc181610bac565b82525050565b6000602082019050610bdc6000830184610bb8565b92915050565b60008060408385031215610bf957610bf861086e565b5b600083013567ffffffffffffffff811115610c1757610c16610873565b5b610c2385828601610990565b925050602083013567ffffffffffffffff811115610c4457610c43610873565b5b610c5085828601610990565b9150509250929050565b7f4e487b7100000000000000000000000000000000000000000000000000000000600052602260045260246000fd5b60006002820490506001821680610ca157607f821691505b602082108103610cb457610cb3610c5a565b5b50919050565b600081905092915050565b6000610cd082610a07565b610cda8185610cba565b9350610cea818560208601610a23565b80840191505092915050565b6000610d028284610cc5565b915081905092915050565b7f506572736f6e616c69747920646f6573206e6f74206578697374000000000000600082015250565b6000610d43601a83610a12565b9150610d4e82610d0d565b602082019050919050565b60006020820190508181036000830152610d7281610d36565b9050919050565b7f596f75206861766520616c726561647920766f74656400000000000000000000600082015250565b6000610daf601683610a12565b9150610dba82610d79565b602082019050919050565b60006020820190508181036000830152610dde81610da2565b9050919050565b7f4e487b7100000000000000000000000000000000000000000000000000000000600052601160045260246000fd5b6000610e1f82610a86565b9150610e2a83610a86565b9250828201905080821115610e4257610e41610de5565b5b92915050565b60006060820190508181036000830152610e628186610a4d565b9050610e716020830185610a90565b610e7e6040830184610a90565b949350505050565b7f506572736f6e616c69747920616c726561647920657869737473000000000000600082015250565b6000610ebc601a83610a12565b9150610ec782610e86565b602082019050919050565b60006020820190508181036000830152610eeb81610eaf565b9050919050565b60008190508160005260206000209050919050565b60006020601f8301049050919050565b600082821b905092915050565b600060088302610f547fffffffffffffffffffffffffffffffffffffffffffffffffffffffffffffffff82610f17565b610f5e8683610f17565b95508019841693508086168417925050509392505050565b6000819050919050565b6000610f9b610f96610f9184610a86565b610f76565b610a86565b9050919050565b6000819050919050565b610fb583610f80565b610fc9610fc182610fa2565b848454610f24565b825550505050565b600090565b610fde610fd1565b610fe9818484610fac565b505050565b5b8181101561100d57611002600082610fd6565b600181019050610fef565b5050565b601f8211156110525761102381610ef2565b61102c84610f07565b8101602085101561103b578190505b61104f61104785610f07565b830182610fee565b50505b505050565b600082821c905092915050565b600061107560001984600802611057565b1980831691505092915050565b600061108e8383611064565b9150826002028217905092915050565b6110a782610a07565b67ffffffffffffffff8111156110c0576110bf610893565b5b6110ca8254610c89565b6110d5828285611011565b600060209050601f83116001811461110857600084156110f6578287015190505b6111008582611082565b865550611168565b601f19841661111686610ef2565b60005b8281101561113e57848901518255600182019150602085019450602081019050611119565b8683101561115b5784890151611157601f891682611064565b8355505b6001600288020188555050505b505050505050565b6000602082019050818103600083015261118a8184610a4d565b90509291505056fea26469706673582212201b0107371fb89ec7b4da40cb1e4b0cc147a0af89c649539d333c2d6ded93626c64736f6c63430008120033",
  "linkReferences": {},
  "deployedLinkReferences": {}
}