{
  "_format": "hh-sol-artifact-1",
  "contractName": "Voting",
  "sourceName": "contracts/Voting.sol",
  "abi": [
    {
      "anonymous": false,
      "inputs": [
        {
          "indexed": false,
          "internalType": "string",
          "name": "name",
          "type": "string"
        }
      ],
      "name": "PersonalityCreated",
      "type": "event"
    },
    {
      "anonymous": false,
      "inputs": [
        {
          "indexed": false,
          "internalType": "string",
          "name": "name",
          "type": "string"
        },
        {
          "indexed": false,
          "internalType": "uint256",
          "name": "upvotes",
          "type": "uint256"
        },
        {
          "indexed": false,
          "internalType": "uint256",
          "name": "downvotes",
          "type": "uint256"
        }
      ],
      "name": "VotingUpdated",
      "type": "event"
    },
    {
      "inputs": [
        {
          "internalType": "string",
          "name": "name",
          "type": "string"
        }
      ],
      "name": "createPersonality",
      "outputs": [],
      "stateMutability": "nonpayable",
      "type": "function"
    },
    {
      "inputs": [
        {
          "internalType": "string",
          "name": "name",
          "type": "string"
        }
      ],
      "name": "downvote",
      "outputs": [],
      "stateMutability": "nonpayable",
      "type": "function"
    },
    {
      "inputs": [
        {
          "internalType": "string",
          "name": "",
          "type": "string"
        }
      ],
      "name": "personalities",
      "outputs": [
        {
          "internalType": "string",
          "name": "name",
          "type": "string"
        },
        {
          "internalType": "uint256",
          "name": "upvotes",
          "type": "uint256"
        },
        {
          "internalType": "uint256",
          "name": "downvotes",
          "type": "uint256"
        }
      ],
      "stateMutability": "view",
      "type": "function"
    },
    {
      "inputs": [
        {
          "internalType": "string",
          "name": "name",
          "type": "string"
        }
      ],
      "name": "upvote",
      "outputs": [],
      "stateMutability": "nonpayable",
      "type": "function"
    },
    {
      "inputs": [
        {
          "internalType": "address",
          "name": "",
          "type": "address"
        },
        {
          "internalType": "string",
          "name": "",
          "type": "string"
        }
      ],
      "name": "votes",
      "outputs": [
        {
          "internalType": "bool",
          "name": "",
          "type": "bool"
        }
      ],
      "stateMutability": "view",
      "type": "function"
    }
  ],
  "bytecode": "0x608060405234801561001057600080fd5b50611051806100206000396000f3fe608060405234801561001057600080fd5b50600436106100575760003560e01c80630b0d5d3c1461005c5780630e90a1e0146100785780633de87871146100aa57806360bde833146100da5780638374d7d5146100f6575b600080fd5b61007660048036038101906100719190610912565b610112565b005b610092600480360381019061008d9190610912565b610223565b6040516100a1939291906109f3565b60405180910390f35b6100c460048036038101906100bf9190610a8f565b6102eb565b6040516100d19190610b06565b60405180910390f35b6100f460048036038101906100ef9190610912565b610330565b005b610110600480360381019061010b9190610912565b610574565b005b600080826040516101239190610b5d565b9081526020016040518091039020600001805461013f90610ba3565b905014610181576040517f08c379a000000000000000000000000000000000000000000000000000000000815260040161017890610c20565b60405180910390fd5b60405180606001604052808281526020016000815260200160008152506000826040516101ae9190610b5d565b908152602001604051809103902060008201518160000190816101d19190610dec565b5060208201518160010155604082015181600201559050507fa7ff89417980ab937d84a0edc98eb99216b459ffe40ee8bc0a7aa8a46bc1a997816040516102189190610ebe565b60405180910390a150565b60008180516020810182018051848252602083016020850120818352809550505050505060009150905080600001805461025c90610ba3565b80601f016020809104026020016040519081016040528092919081815260200182805461028890610ba3565b80156102d55780601f106102aa576101008083540402835291602001916102d5565b820191906000526020600020905b8154815290600101906020018083116102b857829003601f168201915b5050505050908060010154908060020154905083565b6001602052816000526040600020818051602081018201805184825260208301602085012081835280955050505050506000915091509054906101000a900460ff1681565b600080826040516103419190610b5d565b9081526020016040518091039020600001805461035d90610ba3565b90500361039f576040517f08c379a000000000000000000000000000000000000000000000000000000000815260040161039690610f2c565b60405180910390fd5b600160003373ffffffffffffffffffffffffffffffffffffffff1673ffffffffffffffffffffffffffffffffffffffff168152602001908152602001600020816040516103ec9190610b5d565b908152602001604051809103902060009054906101000a900460ff1615610448576040517f08c379a000000000000000000000000000000000000000000000000000000000815260040161043f90610f98565b60405180910390fd5b600160008260405161045a9190610b5d565b9081526020016040518091039020600101600082825461047a9190610fe7565b9250508190555060018060003373ffffffffffffffffffffffffffffffffffffffff1673ffffffffffffffffffffffffffffffffffffffff168152602001908152602001600020826040516104cf9190610b5d565b908152602001604051809103902060006101000a81548160ff0219169083151502179055507f8ad2513c45c2a8e1c7c887682f57bfd0d183c1e3019a5b52ffc6fa2e4fdd6218816000836040516105269190610b5d565b9081526020016040518091039020600101546000846040516105489190610b5d565b908152602001604051809103902060020154604051610569939291906109f3565b60405180910390a150565b600080826040516105859190610b5d565b908152602001604051809103902060000180546105a190610ba3565b9050036105e3576040517f08c379a00000000000000000000000000000000000000000000000000000000081526004016105da90610f2c565b60405180910390fd5b600160003373ffffffffffffffffffffffffffffffffffffffff1673ffffffffffffffffffffffffffffffffffffffff168152602001908152602001600020816040516106309190610b5d565b908152602001604051809103902060009054906101000a900460ff161561068c576040517f08c379a000000000000000000000000000000000000000000000000000000000815260040161068390610f98565b60405180910390fd5b600160008260405161069e9190610b5d565b908152602001604051809103902060020160008282546106be9190610fe7565b9250508190555060018060003373ffffffffffffffffffffffffffffffffffffffff1673ffffffffffffffffffffffffffffffffffffffff168152602001908152602001600020826040516107139190610b5d565b908152602001604051809103902060006101000a81548160ff0219169083151502179055507f8ad2513c45c2a8e1c7c887682f57bfd0d183c1e3019a5b52ffc6fa2e4fdd62188160008360405161076a9190610b5d565b90815260200160405180910390206001015460008460405161078c9190610b5d565b9081526020016040518091039020600201546040516107ad939291906109f3565b60405180910390a150565b6000604051905090565b600080fd5b600080fd5b600080fd5b600080fd5b6000601f19601f8301169050919050565b7f4e487b7100000000000000000000000000000000000000000000000000000000600052604160045260246000fd5b61081f826107d6565b810181811067ffffffffffffffff8211171561083e5761083d6107e7565b5b80604052505050565b60006108516107b8565b905061085d8282610816565b919050565b600067ffffffffffffffff82111561087d5761087c6107e7565b5b610886826107d6565b9050602081019050919050565b82818337600083830152505050565b60006108b56108b084610862565b610847565b9050828152602081018484840111156108d1576108d06107d1565b5b6108dc848285610893565b509392505050565b600082601f8301126108f9576108f86107cc565b5b81356109098482602086016108a2565b91505092915050565b600060208284031215610928576109276107c2565b5b600082013567ffffffffffffffff811115610946576109456107c7565b5b610952848285016108e4565b91505092915050565b600081519050919050565b600082825260208201905092915050565b60005b8381101561099557808201518184015260208101905061097a565b60008484015250505050565b60006109ac8261095b565b6109b68185610966565b93506109c6818560208601610977565b6109cf816107d6565b840191505092915050565b6000819050919050565b6109ed816109da565b82525050565b60006060820190508181036000830152610a0d81866109a1565b9050610a1c60208301856109e4565b610a2960408301846109e4565b949350505050565b600073ffffffffffffffffffffffffffffffffffffffff82169050919050565b6000610a5c82610a31565b9050919050565b610a6c81610a51565b8114610a7757600080fd5b50565b600081359050610a8981610a63565b92915050565b60008060408385031215610aa657610aa56107c2565b5b6000610ab485828601610a7a565b925050602083013567ffffffffffffffff811115610ad557610ad46107c7565b5b610ae1858286016108e4565b9150509250929050565b60008115159050919050565b610b0081610aeb565b82525050565b6000602082019050610b1b6000830184610af7565b92915050565b600081905092915050565b6000610b378261095b565b610b418185610b21565b9350610b51818560208601610977565b80840191505092915050565b6000610b698284610b2c565b915081905092915050565b7f4e487b7100000000000000000000000000000000000000000000000000000000600052602260045260246000fd5b60006002820490506001821680610bbb57607f821691505b602082108103610bce57610bcd610b74565b5b50919050565b7f506572736f6e616c69747920616c726561647920657869737473000000000000600082015250565b6000610c0a601a83610966565b9150610c1582610bd4565b602082019050919050565b60006020820190508181036000830152610c3981610bfd565b9050919050565b60008190508160005260206000209050919050565b60006020601f8301049050919050565b600082821b905092915050565b600060088302610ca27fffffffffffffffffffffffffffffffffffffffffffffffffffffffffffffffff82610c65565b610cac8683610c65565b95508019841693508086168417925050509392505050565b6000819050919050565b6000610ce9610ce4610cdf846109da565b610cc4565b6109da565b9050919050565b6000819050919050565b610d0383610cce565b610d17610d0f82610cf0565b848454610c72565b825550505050565b600090565b610d2c610d1f565b610d37818484610cfa565b505050565b5b81811015610d5b57610d50600082610d24565b600181019050610d3d565b5050565b601f821115610da057610d7181610c40565b610d7a84610c55565b81016020851015610d89578190505b610d9d610d9585610c55565b830182610d3c565b50505b505050565b600082821c905092915050565b6000610dc360001984600802610da5565b1980831691505092915050565b6000610ddc8383610db2565b9150826002028217905092915050565b610df58261095b565b67ffffffffffffffff811115610e0e57610e0d6107e7565b5b610e188254610ba3565b610e23828285610d5f565b600060209050601f831160018114610e565760008415610e44578287015190505b610e4e8582610dd0565b865550610eb6565b601f198416610e6486610c40565b60005b82811015610e8c57848901518255600182019150602085019450602081019050610e67565b86831015610ea95784890151610ea5601f891682610db2565b8355505b6001600288020188555050505b505050505050565b60006020820190508181036000830152610ed881846109a1565b905092915050565b7f506572736f6e616c69747920646f6573206e6f74206578697374000000000000600082015250565b6000610f16601a83610966565b9150610f2182610ee0565b602082019050919050565b60006020820190508181036000830152610f4581610f09565b9050919050565b7f596f75206861766520616c726561647920766f74656400000000000000000000600082015250565b6000610f82601683610966565b9150610f8d82610f4c565b602082019050919050565b60006020820190508181036000830152610fb181610f75565b9050919050565b7f4e487b7100000000000000000000000000000000000000000000000000000000600052601160045260246000fd5b6000610ff2826109da565b9150610ffd836109da565b925082820190508082111561101557611014610fb8565b5b9291505056fea2646970667358221220730c63f86654af2a043cdcc8c74bb6132310a44c2428fcb91eccb44db7841b7064736f6c63430008120033",
  "linkReferences": {},
  "deployedLinkReferences": {}
}