{"contracts/Voting.sol":{"Voting":{"abi":[{"anonymous":false,"inputs":[{"indexed":false,"internalType":"string","name":"name","type":"string"}],"name":"PersonalityCreated","type":"event"},{"anonymous":false,"inputs":[{"indexed":false,"internalType":"string","name":"name","type":"string"},{"indexed":false,"internalType":"uint256","name":"upvotes","type":"uint256"},{"indexed":false,"internalType":"uint256","name":"downvotes","type":"uint256"}],"name":"VotingUpdated","type":"event"},{"inputs":[{"internalType":"string","name":"name","type":"string"},{"internalType":"string","name":"about","type":"string"}],"name":"createPersonality","outputs":[],"stateMutability":"nonpayable","type":"function"},{"inputs":[{"internalType":"string","name":"name","type":"string"}],"name":"downvote","outputs":[],"stateMutability":"nonpayable","type":"function"},{"inputs":[{"internalType":"string","name":"","type":"string"}],"name":"personalities","outputs":[{"internalType":"string","name":"name","type":"string"},{"internalType":"uint256","name":"upvotes","type":"uint256"},{"internalType":"uint256","name":"downvotes","type":"uint256"},{"internalType":"string","name":"about","type":"string"}],"stateMutability":"view","type":"function"},{"inputs":[{"internalType":"string","name":"name","type":"string"}],"name":"upvote","outputs":[],"stateMutability":"nonpayable","type":"function"},{"inputs":[{"internalType":"address","name":"","type":"address"},{"internalType":"string","name":"","type":"string"}],"name":"votes","outputs":[{"internalType":"bool","name":"","type":"bool"}],"stateMutability":"view","type":"function"}],"evm":{"bytecode":{"linkReferences":{},"object":"608060405234801561001057600080fd5b506111c8806100206000396000f3fe608060405234801561001057600080fd5b50600436106100575760003560e01c80630e90a1e01461005c5780633de878711461008f57806360bde833146100bf5780638374d7d5146100db578063850c81b3146100f7575b600080fd5b610076600480360381019061007191906109be565b610113565b6040516100869493929190610a9f565b60405180910390f35b6100a960048036038101906100a49190610b50565b610269565b6040516100b69190610bc7565b60405180910390f35b6100d960048036038101906100d491906109be565b6102ae565b005b6100f560048036038101906100f091906109be565b6104f2565b005b610111600480360381019061010c9190610be2565b610736565b005b60008180516020810182018051848252602083016020850120818352809550505050505060009150905080600001805461014c90610c89565b80601f016020809104026020016040519081016040528092919081815260200182805461017890610c89565b80156101c55780601f1061019a576101008083540402835291602001916101c5565b820191906000526020600020905b8154815290600101906020018083116101a857829003601f168201915b5050505050908060010154908060020154908060030180546101e690610c89565b80601f016020809104026020016040519081016040528092919081815260200182805461021290610c89565b801561025f5780601f106102345761010080835404028352916020019161025f565b820191906000526020600020905b81548152906001019060200180831161024257829003601f168201915b5050505050905084565b6001602052816000526040600020818051602081018201805184825260208301602085012081835280955050505050506000915091509054906101000a900460ff1681565b600080826040516102bf9190610cf6565b908152602001604051809103902060000180546102db90610c89565b90500361031d576040517f08c379a000000000000000000000000000000000000000000000000000000000815260040161031490610d59565b60405180910390fd5b600160003373ffffffffffffffffffffffffffffffffffffffff1673ffffffffffffffffffffffffffffffffffffffff1681526020019081526020016000208160405161036a9190610cf6565b908152602001604051809103902060009054906101000a900460ff16156103c6576040517f08c379a00000000000000000000000000000000000000000000000000000000081526004016103bd90610dc5565b60405180910390fd5b60016000826040516103d89190610cf6565b908152602001604051809103902060010160008282546103f89190610e14565b9250508190555060018060003373ffffffffffffffffffffffffffffffffffffffff1673ffffffffffffffffffffffffffffffffffffffff1681526020019081526020016000208260405161044d9190610cf6565b908152602001604051809103902060006101000a81548160ff0219169083151502179055507f8ad2513c45c2a8e1c7c887682f57bfd0d183c1e3019a5b52ffc6fa2e4fdd6218816000836040516104a49190610cf6565b9081526020016040518091039020600101546000846040516104c69190610cf6565b9081526020016040518091039020600201546040516104e793929190610e48565b60405180910390a150565b600080826040516105039190610cf6565b9081526020016040518091039020600001805461051f90610c89565b905003610561576040517f08c379a000000000000000000000000000000000000000000000000000000000815260040161055890610d59565b60405180910390fd5b600160003373ffffffffffffffffffffffffffffffffffffffff1673ffffffffffffffffffffffffffffffffffffffff168152602001908152602001600020816040516105ae9190610cf6565b908152602001604051809103902060009054906101000a900460ff161561060a576040517f08c379a000000000000000000000000000000000000000000000000000000000815260040161060190610dc5565b60405180910390fd5b600160008260405161061c9190610cf6565b9081526020016040518091039020600201600082825461063c9190610e14565b9250508190555060018060003373ffffffffffffffffffffffffffffffffffffffff1673ffffffffffffffffffffffffffffffffffffffff168152602001908152602001600020826040516106919190610cf6565b908152602001604051809103902060006101000a81548160ff0219169083151502179055507f8ad2513c45c2a8e1c7c887682f57bfd0d183c1e3019a5b52ffc6fa2e4fdd6218816000836040516106e89190610cf6565b90815260200160405180910390206001015460008460405161070a9190610cf6565b90815260200160405180910390206002015460405161072b93929190610e48565b60405180910390a150565b600080836040516107479190610cf6565b9081526020016040518091039020600001805461076390610c89565b9050146107a5576040517f08c379a000000000000000000000000000000000000000000000000000000000815260040161079c90610ed2565b60405180910390fd5b60405180608001604052808381526020016000815260200160008152602001828152506000836040516107d89190610cf6565b908152602001604051809103902060008201518160000190816107fb919061109e565b5060208201518160010155604082015181600201556060820151816003019081610825919061109e565b509050507fa7ff89417980ab937d84a0edc98eb99216b459ffe40ee8bc0a7aa8a46bc1a997826040516108589190611170565b60405180910390a15050565b6000604051905090565b600080fd5b600080fd5b600080fd5b600080fd5b6000601f19601f8301169050919050565b7f4e487b7100000000000000000000000000000000000000000000000000000000600052604160045260246000fd5b6108cb82610882565b810181811067ffffffffffffffff821117156108ea576108e9610893565b5b80604052505050565b60006108fd610864565b905061090982826108c2565b919050565b600067ffffffffffffffff82111561092957610928610893565b5b61093282610882565b9050602081019050919050565b82818337600083830152505050565b600061096161095c8461090e565b6108f3565b90508281526020810184848401111561097d5761097c61087d565b5b61098884828561093f565b509392505050565b600082601f8301126109a5576109a4610878565b5b81356109b584826020860161094e565b91505092915050565b6000602082840312156109d4576109d361086e565b5b600082013567ffffffffffffffff8111156109f2576109f1610873565b5b6109fe84828501610990565b91505092915050565b600081519050919050565b600082825260208201905092915050565b60005b83811015610a41578082015181840152602081019050610a26565b60008484015250505050565b6000610a5882610a07565b610a628185610a12565b9350610a72818560208601610a23565b610a7b81610882565b840191505092915050565b6000819050919050565b610a9981610a86565b82525050565b60006080820190508181036000830152610ab98187610a4d565b9050610ac86020830186610a90565b610ad56040830185610a90565b8181036060830152610ae78184610a4d565b905095945050505050565b600073ffffffffffffffffffffffffffffffffffffffff82169050919050565b6000610b1d82610af2565b9050919050565b610b2d81610b12565b8114610b3857600080fd5b50565b600081359050610b4a81610b24565b92915050565b60008060408385031215610b6757610b6661086e565b5b6000610b7585828601610b3b565b925050602083013567ffffffffffffffff811115610b9657610b95610873565b5b610ba285828601610990565b9150509250929050565b60008115159050919050565b610bc181610bac565b82525050565b6000602082019050610bdc6000830184610bb8565b92915050565b60008060408385031215610bf957610bf861086e565b5b600083013567ffffffffffffffff811115610c1757610c16610873565b5b610c2385828601610990565b925050602083013567ffffffffffffffff811115610c4457610c43610873565b5b610c5085828601610990565b9150509250929050565b7f4e487b7100000000000000000000000000000000000000000000000000000000600052602260045260246000fd5b60006002820490506001821680610ca157607f821691505b602082108103610cb457610cb3610c5a565b5b50919050565b600081905092915050565b6000610cd082610a07565b610cda8185610cba565b9350610cea818560208601610a23565b80840191505092915050565b6000610d028284610cc5565b915081905092915050565b7f506572736f6e616c69747920646f6573206e6f74206578697374000000000000600082015250565b6000610d43601a83610a12565b9150610d4e82610d0d565b602082019050919050565b60006020820190508181036000830152610d7281610d36565b9050919050565b7f596f75206861766520616c726561647920766f74656400000000000000000000600082015250565b6000610daf601683610a12565b9150610dba82610d79565b602082019050919050565b60006020820190508181036000830152610dde81610da2565b9050919050565b7f4e487b7100000000000000000000000000000000000000000000000000000000600052601160045260246000fd5b6000610e1f82610a86565b9150610e2a83610a86565b9250828201905080821115610e4257610e41610de5565b5b92915050565b60006060820190508181036000830152610e628186610a4d565b9050610e716020830185610a90565b610e7e6040830184610a90565b949350505050565b7f506572736f6e616c69747920616c726561647920657869737473000000000000600082015250565b6000610ebc601a83610a12565b9150610ec782610e86565b602082019050919050565b60006020820190508181036000830152610eeb81610eaf565b9050919050565b60008190508160005260206000209050919050565b60006020601f8301049050919050565b600082821b905092915050565b600060088302610f547fffffffffffffffffffffffffffffffffffffffffffffffffffffffffffffffff82610f17565b610f5e8683610f17565b95508019841693508086168417925050509392505050565b6000819050919050565b6000610f9b610f96610f9184610a86565b610f76565b610a86565b9050919050565b6000819050919050565b610fb583610f80565b610fc9610fc182610fa2565b848454610f24565b825550505050565b600090565b610fde610fd1565b610fe9818484610fac565b505050565b5b8181101561100d57611002600082610fd6565b600181019050610fef565b5050565b601f8211156110525761102381610ef2565b61102c84610f07565b8101602085101561103b578190505b61104f61104785610f07565b830182610fee565b50505b505050565b600082821c905092915050565b600061107560001984600802611057565b1980831691505092915050565b600061108e8383611064565b9150826002028217905092915050565b6110a782610a07565b67ffffffffffffffff8111156110c0576110bf610893565b5b6110ca8254610c89565b6110d5828285611011565b600060209050601f83116001811461110857600084156110f6578287015190505b6111008582611082565b865550611168565b601f19841661111686610ef2565b60005b8281101561113e57848901518255600182019150602085019450602081019050611119565b8683101561115b5784890151611157601f891682611064565b8355505b6001600288020188555050505b505050505050565b6000602082019050818103600083015261118a8184610a4d565b90509291505056fea26469706673582212201b0107371fb89ec7b4da40cb1e4b0cc147a0af89c649539d333c2d6ded93626c64736f6c63430008120033","opcodes":"PUSH1 0x80 PUSH1 0x40 MSTORE CALLVALUE DUP1 ISZERO PUSH2 0x10 JUMPI PUSH1 0x0 DUP1 REVERT JUMPDEST POP PUSH2 0x11C8 DUP1 PUSH2 0x20 PUSH1 0x0 CODECOPY PUSH1 0x0 RETURN INVALID PUSH1 0x80 PUSH1 0x40 MSTORE CALLVALUE DUP1 ISZERO PUSH2 0x10 JUMPI PUSH1 0x0 DUP1 REVERT JUMPDEST POP PUSH1 0x4 CALLDATASIZE LT PUSH2 0x57 JUMPI PUSH1 0x0 CALLDATALOAD PUSH1 0xE0 SHR DUP1 PUSH4 0xE90A1E0 EQ PUSH2 0x5C JUMPI DUP1 PUSH4 0x3DE87871 EQ PUSH2 0x8F JUMPI DUP1 PUSH4 0x60BDE833 EQ PUSH2 0xBF JUMPI DUP1 PUSH4 0x8374D7D5 EQ PUSH2 0xDB JUMPI DUP1 PUSH4 0x850C81B3 EQ PUSH2 0xF7 JUMPI JUMPDEST PUSH1 0x0 DUP1 REVERT JUMPDEST PUSH2 0x76 PUSH1 0x4 DUP1 CALLDATASIZE SUB DUP2 ADD SWAP1 PUSH2 0x71 SWAP2 SWAP1 PUSH2 0x9BE JUMP JUMPDEST PUSH2 0x113 JUMP JUMPDEST PUSH1 0x40 MLOAD PUSH2 0x86 SWAP5 SWAP4 SWAP3 SWAP2 SWAP1 PUSH2 0xA9F JUMP JUMPDEST PUSH1 0x40 MLOAD DUP1 SWAP2 SUB SWAP1 RETURN JUMPDEST PUSH2 0xA9 PUSH1 0x4 DUP1 CALLDATASIZE SUB DUP2 ADD SWAP1 PUSH2 0xA4 SWAP2 SWAP1 PUSH2 0xB50 JUMP JUMPDEST PUSH2 0x269 JUMP JUMPDEST PUSH1 0x40 MLOAD PUSH2 0xB6 SWAP2 SWAP1 PUSH2 0xBC7 JUMP JUMPDEST PUSH1 0x40 MLOAD DUP1 SWAP2 SUB SWAP1 RETURN JUMPDEST PUSH2 0xD9 PUSH1 0x4 DUP1 CALLDATASIZE SUB DUP2 ADD SWAP1 PUSH2 0xD4 SWAP2 SWAP1 PUSH2 0x9BE JUMP JUMPDEST PUSH2 0x2AE JUMP JUMPDEST STOP JUMPDEST PUSH2 0xF5 PUSH1 0x4 DUP1 CALLDATASIZE SUB DUP2 ADD SWAP1 PUSH2 0xF0 SWAP2 SWAP1 PUSH2 0x9BE JUMP JUMPDEST PUSH2 0x4F2 JUMP JUMPDEST STOP JUMPDEST PUSH2 0x111 PUSH1 0x4 DUP1 CALLDATASIZE SUB DUP2 ADD SWAP1 PUSH2 0x10C SWAP2 SWAP1 PUSH2 0xBE2 JUMP JUMPDEST PUSH2 0x736 JUMP JUMPDEST STOP JUMPDEST PUSH1 0x0 DUP2 DUP1 MLOAD PUSH1 0x20 DUP2 ADD DUP3 ADD DUP1 MLOAD DUP5 DUP3 MSTORE PUSH1 0x20 DUP4 ADD PUSH1 0x20 DUP6 ADD KECCAK256 DUP2 DUP4 MSTORE DUP1 SWAP6 POP POP POP POP POP POP PUSH1 0x0 SWAP2 POP SWAP1 POP DUP1 PUSH1 0x0 ADD DUP1 SLOAD PUSH2 0x14C SWAP1 PUSH2 0xC89 JUMP JUMPDEST DUP1 PUSH1 0x1F ADD PUSH1 0x20 DUP1 SWAP2 DIV MUL PUSH1 0x20 ADD PUSH1 0x40 MLOAD SWAP1 DUP2 ADD PUSH1 0x40 MSTORE DUP1 SWAP3 SWAP2 SWAP1 DUP2 DUP2 MSTORE PUSH1 0x20 ADD DUP3 DUP1 SLOAD PUSH2 0x178 SWAP1 PUSH2 0xC89 JUMP JUMPDEST DUP1 ISZERO PUSH2 0x1C5 JUMPI DUP1 PUSH1 0x1F LT PUSH2 0x19A JUMPI PUSH2 0x100 DUP1 DUP4 SLOAD DIV MUL DUP4 MSTORE SWAP2 PUSH1 0x20 ADD SWAP2 PUSH2 0x1C5 JUMP JUMPDEST DUP3 ADD SWAP2 SWAP1 PUSH1 0x0 MSTORE PUSH1 0x20 PUSH1 0x0 KECCAK256 SWAP1 JUMPDEST DUP2 SLOAD DUP2 MSTORE SWAP1 PUSH1 0x1 ADD SWAP1 PUSH1 0x20 ADD DUP1 DUP4 GT PUSH2 0x1A8 JUMPI DUP3 SWAP1 SUB PUSH1 0x1F AND DUP3 ADD SWAP2 JUMPDEST POP POP POP POP POP SWAP1 DUP1 PUSH1 0x1 ADD SLOAD SWAP1 DUP1 PUSH1 0x2 ADD SLOAD SWAP1 DUP1 PUSH1 0x3 ADD DUP1 SLOAD PUSH2 0x1E6 SWAP1 PUSH2 0xC89 JUMP JUMPDEST DUP1 PUSH1 0x1F ADD PUSH1 0x20 DUP1 SWAP2 DIV MUL PUSH1 0x20 ADD PUSH1 0x40 MLOAD SWAP1 DUP2 ADD PUSH1 0x40 MSTORE DUP1 SWAP3 SWAP2 SWAP1 DUP2 DUP2 MSTORE PUSH1 0x20 ADD DUP3 DUP1 SLOAD PUSH2 0x212 SWAP1 PUSH2 0xC89 JUMP JUMPDEST DUP1 ISZERO PUSH2 0x25F JUMPI DUP1 PUSH1 0x1F LT PUSH2 0x234 JUMPI PUSH2 0x100 DUP1 DUP4 SLOAD DIV MUL DUP4 MSTORE SWAP2 PUSH1 0x20 ADD SWAP2 PUSH2 0x25F JUMP JUMPDEST DUP3 ADD SWAP2 SWAP1 PUSH1 0x0 MSTORE PUSH1 0x20 PUSH1 0x0 KECCAK256 SWAP1 JUMPDEST DUP2 SLOAD DUP2 MSTORE SWAP1 PUSH1 0x1 ADD SWAP1 PUSH1 0x20 ADD DUP1 DUP4 GT PUSH2 0x242 JUMPI DUP3 SWAP1 SUB PUSH1 0x1F AND DUP3 ADD SWAP2 JUMPDEST POP POP POP POP POP SWAP1 POP DUP5 JUMP JUMPDEST PUSH1 0x1 PUSH1 0x20 MSTORE DUP2 PUSH1 0x0 MSTORE PUSH1 0x40 PUSH1 0x0 KECCAK256 DUP2 DUP1 MLOAD PUSH1 0x20 DUP2 ADD DUP3 ADD DUP1 MLOAD DUP5 DUP3 MSTORE PUSH1 0x20 DUP4 ADD PUSH1 0x20 DUP6 ADD KECCAK256 DUP2 DUP4 MSTORE DUP1 SWAP6 POP POP POP POP POP POP PUSH1 0x0 SWAP2 POP SWAP2 POP SWAP1 SLOAD SWAP1 PUSH2 0x100 EXP SWAP1 DIV PUSH1 0xFF AND DUP2 JUMP JUMPDEST PUSH1 0x0 DUP1 DUP3 PUSH1 0x40 MLOAD PUSH2 0x2BF SWAP2 SWAP1 PUSH2 0xCF6 JUMP JUMPDEST SWAP1 DUP2 MSTORE PUSH1 0x20 ADD PUSH1 0x40 MLOAD DUP1 SWAP2 SUB SWAP1 KECCAK256 PUSH1 0x0 ADD DUP1 SLOAD PUSH2 0x2DB SWAP1 PUSH2 0xC89 JUMP JUMPDEST SWAP1 POP SUB PUSH2 0x31D JUMPI PUSH1 0x40 MLOAD PUSH32 0x8C379A000000000000000000000000000000000000000000000000000000000 DUP2 MSTORE PUSH1 0x4 ADD PUSH2 0x314 SWAP1 PUSH2 0xD59 JUMP JUMPDEST PUSH1 0x40 MLOAD DUP1 SWAP2 SUB SWAP1 REVERT JUMPDEST PUSH1 0x1 PUSH1 0x0 CALLER PUSH20 0xFFFFFFFFFFFFFFFFFFFFFFFFFFFFFFFFFFFFFFFF AND PUSH20 0xFFFFFFFFFFFFFFFFFFFFFFFFFFFFFFFFFFFFFFFF AND DUP2 MSTORE PUSH1 0x20 ADD SWAP1 DUP2 MSTORE PUSH1 0x20 ADD PUSH1 0x0 KECCAK256 DUP2 PUSH1 0x40 MLOAD PUSH2 0x36A SWAP2 SWAP1 PUSH2 0xCF6 JUMP JUMPDEST SWAP1 DUP2 MSTORE PUSH1 0x20 ADD PUSH1 0x40 MLOAD DUP1 SWAP2 SUB SWAP1 KECCAK256 PUSH1 0x0 SWAP1 SLOAD SWAP1 PUSH2 0x100 EXP SWAP1 DIV PUSH1 0xFF AND ISZERO PUSH2 0x3C6 JUMPI PUSH1 0x40 MLOAD PUSH32 0x8C379A000000000000000000000000000000000000000000000000000000000 DUP2 MSTORE PUSH1 0x4 ADD PUSH2 0x3BD SWAP1 PUSH2 0xDC5 JUMP JUMPDEST PUSH1 0x40 MLOAD DUP1 SWAP2 SUB SWAP1 REVERT JUMPDEST PUSH1 0x1 PUSH1 0x0 DUP3 PUSH1 0x40 MLOAD PUSH2 0x3D8 SWAP2 SWAP1 PUSH2 0xCF6 JUMP JUMPDEST SWAP1 DUP2 MSTORE PUSH1 0x20 ADD PUSH1 0x40 MLOAD DUP1 SWAP2 SUB SWAP1 KECCAK256 PUSH1 0x1 ADD PUSH1 0x0 DUP3 DUP3 SLOAD PUSH2 0x3F8 SWAP2 SWAP1 PUSH2 0xE14 JUMP JUMPDEST SWAP3 POP POP DUP2 SWAP1 SSTORE POP PUSH1 0x1 DUP1 PUSH1 0x0 CALLER PUSH20 0xFFFFFFFFFFFFFFFFFFFFFFFFFFFFFFFFFFFFFFFF AND PUSH20 0xFFFFFFFFFFFFFFFFFFFFFFFFFFFFFFFFFFFFFFFF AND DUP2 MSTORE PUSH1 0x20 ADD SWAP1 DUP2 MSTORE PUSH1 0x20 ADD PUSH1 0x0 KECCAK256 DUP3 PUSH1 0x40 MLOAD PUSH2 0x44D SWAP2 SWAP1 PUSH2 0xCF6 JUMP JUMPDEST SWAP1 DUP2 MSTORE PUSH1 0x20 ADD PUSH1 0x40 MLOAD DUP1 SWAP2 SUB SWAP1 KECCAK256 PUSH1 0x0 PUSH2 0x100 EXP DUP2 SLOAD DUP2 PUSH1 0xFF MUL NOT AND SWAP1 DUP4 ISZERO ISZERO MUL OR SWAP1 SSTORE POP PUSH32 0x8AD2513C45C2A8E1C7C887682F57BFD0D183C1E3019A5B52FFC6FA2E4FDD6218 DUP2 PUSH1 0x0 DUP4 PUSH1 0x40 MLOAD PUSH2 0x4A4 SWAP2 SWAP1 PUSH2 0xCF6 JUMP JUMPDEST SWAP1 DUP2 MSTORE PUSH1 0x20 ADD PUSH1 0x40 MLOAD DUP1 SWAP2 SUB SWAP1 KECCAK256 PUSH1 0x1 ADD SLOAD PUSH1 0x0 DUP5 PUSH1 0x40 MLOAD PUSH2 0x4C6 SWAP2 SWAP1 PUSH2 0xCF6 JUMP JUMPDEST SWAP1 DUP2 MSTORE PUSH1 0x20 ADD PUSH1 0x40 MLOAD DUP1 SWAP2 SUB SWAP1 KECCAK256 PUSH1 0x2 ADD SLOAD PUSH1 0x40 MLOAD PUSH2 0x4E7 SWAP4 SWAP3 SWAP2 SWAP1 PUSH2 0xE48 JUMP JUMPDEST PUSH1 0x40 MLOAD DUP1 SWAP2 SUB SWAP1 LOG1 POP JUMP JUMPDEST PUSH1 0x0 DUP1 DUP3 PUSH1 0x40 MLOAD PUSH2 0x503 SWAP2 SWAP1 PUSH2 0xCF6 JUMP JUMPDEST SWAP1 DUP2 MSTORE PUSH1 0x20 ADD PUSH1 0x40 MLOAD DUP1 SWAP2 SUB SWAP1 KECCAK256 PUSH1 0x0 ADD DUP1 SLOAD PUSH2 0x51F SWAP1 PUSH2 0xC89 JUMP JUMPDEST SWAP1 POP SUB PUSH2 0x561 JUMPI PUSH1 0x40 MLOAD PUSH32 0x8C379A000000000000000000000000000000000000000000000000000000000 DUP2 MSTORE PUSH1 0x4 ADD PUSH2 0x558 SWAP1 PUSH2 0xD59 JUMP JUMPDEST PUSH1 0x40 MLOAD DUP1 SWAP2 SUB SWAP1 REVERT JUMPDEST PUSH1 0x1 PUSH1 0x0 CALLER PUSH20 0xFFFFFFFFFFFFFFFFFFFFFFFFFFFFFFFFFFFFFFFF AND PUSH20 0xFFFFFFFFFFFFFFFFFFFFFFFFFFFFFFFFFFFFFFFF AND DUP2 MSTORE PUSH1 0x20 ADD SWAP1 DUP2 MSTORE PUSH1 0x20 ADD PUSH1 0x0 KECCAK256 DUP2 PUSH1 0x40 MLOAD PUSH2 0x5AE SWAP2 SWAP1 PUSH2 0xCF6 JUMP JUMPDEST SWAP1 DUP2 MSTORE PUSH1 0x20 ADD PUSH1 0x40 MLOAD DUP1 SWAP2 SUB SWAP1 KECCAK256 PUSH1 0x0 SWAP1 SLOAD SWAP1 PUSH2 0x100 EXP SWAP1 DIV PUSH1 0xFF AND ISZERO PUSH2 0x60A JUMPI PUSH1 0x40 MLOAD PUSH32 0x8C379A000000000000000000000000000000000000000000000000000000000 DUP2 MSTORE PUSH1 0x4 ADD PUSH2 0x601 SWAP1 PUSH2 0xDC5 JUMP JUMPDEST PUSH1 0x40 MLOAD DUP1 SWAP2 SUB SWAP1 REVERT JUMPDEST PUSH1 0x1 PUSH1 0x0 DUP3 PUSH1 0x40 MLOAD PUSH2 0x61C SWAP2 SWAP1 PUSH2 0xCF6 JUMP JUMPDEST SWAP1 DUP2 MSTORE PUSH1 0x20 ADD PUSH1 0x40 MLOAD DUP1 SWAP2 SUB SWAP1 KECCAK256 PUSH1 0x2 ADD PUSH1 0x0 DUP3 DUP3 SLOAD PUSH2 0x63C SWAP2 SWAP1 PUSH2 0xE14 JUMP JUMPDEST SWAP3 POP POP DUP2 SWAP1 SSTORE POP PUSH1 0x1 DUP1 PUSH1 0x0 CALLER PUSH20 0xFFFFFFFFFFFFFFFFFFFFFFFFFFFFFFFFFFFFFFFF AND PUSH20 0xFFFFFFFFFFFFFFFFFFFFFFFFFFFFFFFFFFFFFFFF AND DUP2 MSTORE PUSH1 0x20 ADD SWAP1 DUP2 MSTORE PUSH1 0x20 ADD PUSH1 0x0 KECCAK256 DUP3 PUSH1 0x40 MLOAD PUSH2 0x691 SWAP2 SWAP1 PUSH2 0xCF6 JUMP JUMPDEST SWAP1 DUP2 MSTORE PUSH1 0x20 ADD PUSH1 0x40 MLOAD DUP1 SWAP2 SUB SWAP1 KECCAK256 PUSH1 0x0 PUSH2 0x100 EXP DUP2 SLOAD DUP2 PUSH1 0xFF MUL NOT AND SWAP1 DUP4 ISZERO ISZERO MUL OR SWAP1 SSTORE POP PUSH32 0x8AD2513C45C2A8E1C7C887682F57BFD0D183C1E3019A5B52FFC6FA2E4FDD6218 DUP2 PUSH1 0x0 DUP4 PUSH1 0x40 MLOAD PUSH2 0x6E8 SWAP2 SWAP1 PUSH2 0xCF6 JUMP JUMPDEST SWAP1 DUP2 MSTORE PUSH1 0x20 ADD PUSH1 0x40 MLOAD DUP1 SWAP2 SUB SWAP1 KECCAK256 PUSH1 0x1 ADD SLOAD PUSH1 0x0 DUP5 PUSH1 0x40 MLOAD PUSH2 0x70A SWAP2 SWAP1 PUSH2 0xCF6 JUMP JUMPDEST SWAP1 DUP2 MSTORE PUSH1 0x20 ADD PUSH1 0x40 MLOAD DUP1 SWAP2 SUB SWAP1 KECCAK256 PUSH1 0x2 ADD SLOAD PUSH1 0x40 MLOAD PUSH2 0x72B SWAP4 SWAP3 SWAP2 SWAP1 PUSH2 0xE48 JUMP JUMPDEST PUSH1 0x40 MLOAD DUP1 SWAP2 SUB SWAP1 LOG1 POP JUMP JUMPDEST PUSH1 0x0 DUP1 DUP4 PUSH1 0x40 MLOAD PUSH2 0x747 SWAP2 SWAP1 PUSH2 0xCF6 JUMP JUMPDEST SWAP1 DUP2 MSTORE PUSH1 0x20 ADD PUSH1 0x40 MLOAD DUP1 SWAP2 SUB SWAP1 KECCAK256 PUSH1 0x0 ADD DUP1 SLOAD PUSH2 0x763 SWAP1 PUSH2 0xC89 JUMP JUMPDEST SWAP1 POP EQ PUSH2 0x7A5 JUMPI PUSH1 0x40 MLOAD PUSH32 0x8C379A000000000000000000000000000000000000000000000000000000000 DUP2 MSTORE PUSH1 0x4 ADD PUSH2 0x79C SWAP1 PUSH2 0xED2 JUMP JUMPDEST PUSH1 0x40 MLOAD DUP1 SWAP2 SUB SWAP1 REVERT JUMPDEST PUSH1 0x40 MLOAD DUP1 PUSH1 0x80 ADD PUSH1 0x40 MSTORE DUP1 DUP4 DUP2 MSTORE PUSH1 0x20 ADD PUSH1 0x0 DUP2 MSTORE PUSH1 0x20 ADD PUSH1 0x0 DUP2 MSTORE PUSH1 0x20 ADD DUP3 DUP2 MSTORE POP PUSH1 0x0 DUP4 PUSH1 0x40 MLOAD PUSH2 0x7D8 SWAP2 SWAP1 PUSH2 0xCF6 JUMP JUMPDEST SWAP1 DUP2 MSTORE PUSH1 0x20 ADD PUSH1 0x40 MLOAD DUP1 SWAP2 SUB SWAP1 KECCAK256 PUSH1 0x0 DUP3 ADD MLOAD DUP2 PUSH1 0x0 ADD SWAP1 DUP2 PUSH2 0x7FB SWAP2 SWAP1 PUSH2 0x109E JUMP JUMPDEST POP PUSH1 0x20 DUP3 ADD MLOAD DUP2 PUSH1 0x1 ADD SSTORE PUSH1 0x40 DUP3 ADD MLOAD DUP2 PUSH1 0x2 ADD SSTORE PUSH1 0x60 DUP3 ADD MLOAD DUP2 PUSH1 0x3 ADD SWAP1 DUP2 PUSH2 0x825 SWAP2 SWAP1 PUSH2 0x109E JUMP JUMPDEST POP SWAP1 POP POP PUSH32 0xA7FF89417980AB937D84A0EDC98EB99216B459FFE40EE8BC0A7AA8A46BC1A997 DUP3 PUSH1 0x40 MLOAD PUSH2 0x858 SWAP2 SWAP1 PUSH2 0x1170 JUMP JUMPDEST PUSH1 0x40 MLOAD DUP1 SWAP2 SUB SWAP1 LOG1 POP POP JUMP JUMPDEST PUSH1 0x0 PUSH1 0x40 MLOAD SWAP1 POP SWAP1 JUMP JUMPDEST PUSH1 0x0 DUP1 REVERT JUMPDEST PUSH1 0x0 DUP1 REVERT JUMPDEST PUSH1 0x0 DUP1 REVERT JUMPDEST PUSH1 0x0 DUP1 REVERT JUMPDEST PUSH1 0x0 PUSH1 0x1F NOT PUSH1 0x1F DUP4 ADD AND SWAP1 POP SWAP2 SWAP1 POP JUMP JUMPDEST PUSH32 0x4E487B7100000000000000000000000000000000000000000000000000000000 PUSH1 0x0 MSTORE PUSH1 0x41 PUSH1 0x4 MSTORE PUSH1 0x24 PUSH1 0x0 REVERT JUMPDEST PUSH2 0x8CB DUP3 PUSH2 0x882 JUMP JUMPDEST DUP2 ADD DUP2 DUP2 LT PUSH8 0xFFFFFFFFFFFFFFFF DUP3 GT OR ISZERO PUSH2 0x8EA JUMPI PUSH2 0x8E9 PUSH2 0x893 JUMP JUMPDEST JUMPDEST DUP1 PUSH1 0x40 MSTORE POP POP POP JUMP JUMPDEST PUSH1 0x0 PUSH2 0x8FD PUSH2 0x864 JUMP JUMPDEST SWAP1 POP PUSH2 0x909 DUP3 DUP3 PUSH2 0x8C2 JUMP JUMPDEST SWAP2 SWAP1 POP JUMP JUMPDEST PUSH1 0x0 PUSH8 0xFFFFFFFFFFFFFFFF DUP3 GT ISZERO PUSH2 0x929 JUMPI PUSH2 0x928 PUSH2 0x893 JUMP JUMPDEST JUMPDEST PUSH2 0x932 DUP3 PUSH2 0x882 JUMP JUMPDEST SWAP1 POP PUSH1 0x20 DUP2 ADD SWAP1 POP SWAP2 SWAP1 POP JUMP JUMPDEST DUP3 DUP2 DUP4 CALLDATACOPY PUSH1 0x0 DUP4 DUP4 ADD MSTORE POP POP POP JUMP JUMPDEST PUSH1 0x0 PUSH2 0x961 PUSH2 0x95C DUP5 PUSH2 0x90E JUMP JUMPDEST PUSH2 0x8F3 JUMP JUMPDEST SWAP1 POP DUP3 DUP2 MSTORE PUSH1 0x20 DUP2 ADD DUP5 DUP5 DUP5 ADD GT ISZERO PUSH2 0x97D JUMPI PUSH2 0x97C PUSH2 0x87D JUMP JUMPDEST JUMPDEST PUSH2 0x988 DUP5 DUP3 DUP6 PUSH2 0x93F JUMP JUMPDEST POP SWAP4 SWAP3 POP POP POP JUMP JUMPDEST PUSH1 0x0 DUP3 PUSH1 0x1F DUP4 ADD SLT PUSH2 0x9A5 JUMPI PUSH2 0x9A4 PUSH2 0x878 JUMP JUMPDEST JUMPDEST DUP2 CALLDATALOAD PUSH2 0x9B5 DUP5 DUP3 PUSH1 0x20 DUP7 ADD PUSH2 0x94E JUMP JUMPDEST SWAP2 POP POP SWAP3 SWAP2 POP POP JUMP JUMPDEST PUSH1 0x0 PUSH1 0x20 DUP3 DUP5 SUB SLT ISZERO PUSH2 0x9D4 JUMPI PUSH2 0x9D3 PUSH2 0x86E JUMP JUMPDEST JUMPDEST PUSH1 0x0 DUP3 ADD CALLDATALOAD PUSH8 0xFFFFFFFFFFFFFFFF DUP2 GT ISZERO PUSH2 0x9F2 JUMPI PUSH2 0x9F1 PUSH2 0x873 JUMP JUMPDEST JUMPDEST PUSH2 0x9FE DUP5 DUP3 DUP6 ADD PUSH2 0x990 JUMP JUMPDEST SWAP2 POP POP SWAP3 SWAP2 POP POP JUMP JUMPDEST PUSH1 0x0 DUP2 MLOAD SWAP1 POP SWAP2 SWAP1 POP JUMP JUMPDEST PUSH1 0x0 DUP3 DUP3 MSTORE PUSH1 0x20 DUP3 ADD SWAP1 POP SWAP3 SWAP2 POP POP JUMP JUMPDEST PUSH1 0x0 JUMPDEST DUP4 DUP2 LT ISZERO PUSH2 0xA41 JUMPI DUP1 DUP3 ADD MLOAD DUP2 DUP5 ADD MSTORE PUSH1 0x20 DUP2 ADD SWAP1 POP PUSH2 0xA26 JUMP JUMPDEST PUSH1 0x0 DUP5 DUP5 ADD MSTORE POP POP POP POP JUMP JUMPDEST PUSH1 0x0 PUSH2 0xA58 DUP3 PUSH2 0xA07 JUMP JUMPDEST PUSH2 0xA62 DUP2 DUP6 PUSH2 0xA12 JUMP JUMPDEST SWAP4 POP PUSH2 0xA72 DUP2 DUP6 PUSH1 0x20 DUP7 ADD PUSH2 0xA23 JUMP JUMPDEST PUSH2 0xA7B DUP2 PUSH2 0x882 JUMP JUMPDEST DUP5 ADD SWAP2 POP POP SWAP3 SWAP2 POP POP JUMP JUMPDEST PUSH1 0x0 DUP2 SWAP1 POP SWAP2 SWAP1 POP JUMP JUMPDEST PUSH2 0xA99 DUP2 PUSH2 0xA86 JUMP JUMPDEST DUP3 MSTORE POP POP JUMP JUMPDEST PUSH1 0x0 PUSH1 0x80 DUP3 ADD SWAP1 POP DUP2 DUP2 SUB PUSH1 0x0 DUP4 ADD MSTORE PUSH2 0xAB9 DUP2 DUP8 PUSH2 0xA4D JUMP JUMPDEST SWAP1 POP PUSH2 0xAC8 PUSH1 0x20 DUP4 ADD DUP7 PUSH2 0xA90 JUMP JUMPDEST PUSH2 0xAD5 PUSH1 0x40 DUP4 ADD DUP6 PUSH2 0xA90 JUMP JUMPDEST DUP2 DUP2 SUB PUSH1 0x60 DUP4 ADD MSTORE PUSH2 0xAE7 DUP2 DUP5 PUSH2 0xA4D JUMP JUMPDEST SWAP1 POP SWAP6 SWAP5 POP POP POP POP POP JUMP JUMPDEST PUSH1 0x0 PUSH20 0xFFFFFFFFFFFFFFFFFFFFFFFFFFFFFFFFFFFFFFFF DUP3 AND SWAP1 POP SWAP2 SWAP1 POP JUMP JUMPDEST PUSH1 0x0 PUSH2 0xB1D DUP3 PUSH2 0xAF2 JUMP JUMPDEST SWAP1 POP SWAP2 SWAP1 POP JUMP JUMPDEST PUSH2 0xB2D DUP2 PUSH2 0xB12 JUMP JUMPDEST DUP2 EQ PUSH2 0xB38 JUMPI PUSH1 0x0 DUP1 REVERT JUMPDEST POP JUMP JUMPDEST PUSH1 0x0 DUP2 CALLDATALOAD SWAP1 POP PUSH2 0xB4A DUP2 PUSH2 0xB24 JUMP JUMPDEST SWAP3 SWAP2 POP POP JUMP JUMPDEST PUSH1 0x0 DUP1 PUSH1 0x40 DUP4 DUP6 SUB SLT ISZERO PUSH2 0xB67 JUMPI PUSH2 0xB66 PUSH2 0x86E JUMP JUMPDEST JUMPDEST PUSH1 0x0 PUSH2 0xB75 DUP6 DUP3 DUP7 ADD PUSH2 0xB3B JUMP JUMPDEST SWAP3 POP POP PUSH1 0x20 DUP4 ADD CALLDATALOAD PUSH8 0xFFFFFFFFFFFFFFFF DUP2 GT ISZERO PUSH2 0xB96 JUMPI PUSH2 0xB95 PUSH2 0x873 JUMP JUMPDEST JUMPDEST PUSH2 0xBA2 DUP6 DUP3 DUP7 ADD PUSH2 0x990 JUMP JUMPDEST SWAP2 POP POP SWAP3 POP SWAP3 SWAP1 POP JUMP JUMPDEST PUSH1 0x0 DUP2 ISZERO ISZERO SWAP1 POP SWAP2 SWAP1 POP JUMP JUMPDEST PUSH2 0xBC1 DUP2 PUSH2 0xBAC JUMP JUMPDEST DUP3 MSTORE POP POP JUMP JUMPDEST PUSH1 0x0 PUSH1 0x20 DUP3 ADD SWAP1 POP PUSH2 0xBDC PUSH1 0x0 DUP4 ADD DUP5 PUSH2 0xBB8 JUMP JUMPDEST SWAP3 SWAP2 POP POP JUMP JUMPDEST PUSH1 0x0 DUP1 PUSH1 0x40 DUP4 DUP6 SUB SLT ISZERO PUSH2 0xBF9 JUMPI PUSH2 0xBF8 PUSH2 0x86E JUMP JUMPDEST JUMPDEST PUSH1 0x0 DUP4 ADD CALLDATALOAD PUSH8 0xFFFFFFFFFFFFFFFF DUP2 GT ISZERO PUSH2 0xC17 JUMPI PUSH2 0xC16 PUSH2 0x873 JUMP JUMPDEST JUMPDEST PUSH2 0xC23 DUP6 DUP3 DUP7 ADD PUSH2 0x990 JUMP JUMPDEST SWAP3 POP POP PUSH1 0x20 DUP4 ADD CALLDATALOAD PUSH8 0xFFFFFFFFFFFFFFFF DUP2 GT ISZERO PUSH2 0xC44 JUMPI PUSH2 0xC43 PUSH2 0x873 JUMP JUMPDEST JUMPDEST PUSH2 0xC50 DUP6 DUP3 DUP7 ADD PUSH2 0x990 JUMP JUMPDEST SWAP2 POP POP SWAP3 POP SWAP3 SWAP1 POP JUMP JUMPDEST PUSH32 0x4E487B7100000000000000000000000000000000000000000000000000000000 PUSH1 0x0 MSTORE PUSH1 0x22 PUSH1 0x4 MSTORE PUSH1 0x24 PUSH1 0x0 REVERT JUMPDEST PUSH1 0x0 PUSH1 0x2 DUP3 DIV SWAP1 POP PUSH1 0x1 DUP3 AND DUP1 PUSH2 0xCA1 JUMPI PUSH1 0x7F DUP3 AND SWAP2 POP JUMPDEST PUSH1 0x20 DUP3 LT DUP2 SUB PUSH2 0xCB4 JUMPI PUSH2 0xCB3 PUSH2 0xC5A JUMP JUMPDEST JUMPDEST POP SWAP2 SWAP1 POP JUMP JUMPDEST PUSH1 0x0 DUP2 SWAP1 POP SWAP3 SWAP2 POP POP JUMP JUMPDEST PUSH1 0x0 PUSH2 0xCD0 DUP3 PUSH2 0xA07 JUMP JUMPDEST PUSH2 0xCDA DUP2 DUP6 PUSH2 0xCBA JUMP JUMPDEST SWAP4 POP PUSH2 0xCEA DUP2 DUP6 PUSH1 0x20 DUP7 ADD PUSH2 0xA23 JUMP JUMPDEST DUP1 DUP5 ADD SWAP2 POP POP SWAP3 SWAP2 POP POP JUMP JUMPDEST PUSH1 0x0 PUSH2 0xD02 DUP3 DUP5 PUSH2 0xCC5 JUMP JUMPDEST SWAP2 POP DUP2 SWAP1 POP SWAP3 SWAP2 POP POP JUMP JUMPDEST PUSH32 0x506572736F6E616C69747920646F6573206E6F74206578697374000000000000 PUSH1 0x0 DUP3 ADD MSTORE POP JUMP JUMPDEST PUSH1 0x0 PUSH2 0xD43 PUSH1 0x1A DUP4 PUSH2 0xA12 JUMP JUMPDEST SWAP2 POP PUSH2 0xD4E DUP3 PUSH2 0xD0D JUMP JUMPDEST PUSH1 0x20 DUP3 ADD SWAP1 POP SWAP2 SWAP1 POP JUMP JUMPDEST PUSH1 0x0 PUSH1 0x20 DUP3 ADD SWAP1 POP DUP2 DUP2 SUB PUSH1 0x0 DUP4 ADD MSTORE PUSH2 0xD72 DUP2 PUSH2 0xD36 JUMP JUMPDEST SWAP1 POP SWAP2 SWAP1 POP JUMP JUMPDEST PUSH32 0x596F75206861766520616C726561647920766F74656400000000000000000000 PUSH1 0x0 DUP3 ADD MSTORE POP JUMP JUMPDEST PUSH1 0x0 PUSH2 0xDAF PUSH1 0x16 DUP4 PUSH2 0xA12 JUMP JUMPDEST SWAP2 POP PUSH2 0xDBA DUP3 PUSH2 0xD79 JUMP JUMPDEST PUSH1 0x20 DUP3 ADD SWAP1 POP SWAP2 SWAP1 POP JUMP JUMPDEST PUSH1 0x0 PUSH1 0x20 DUP3 ADD SWAP1 POP DUP2 DUP2 SUB PUSH1 0x0 DUP4 ADD MSTORE PUSH2 0xDDE DUP2 PUSH2 0xDA2 JUMP JUMPDEST SWAP1 POP SWAP2 SWAP1 POP JUMP JUMPDEST PUSH32 0x4E487B7100000000000000000000000000000000000000000000000000000000 PUSH1 0x0 MSTORE PUSH1 0x11 PUSH1 0x4 MSTORE PUSH1 0x24 PUSH1 0x0 REVERT JUMPDEST PUSH1 0x0 PUSH2 0xE1F DUP3 PUSH2 0xA86 JUMP JUMPDEST SWAP2 POP PUSH2 0xE2A DUP4 PUSH2 0xA86 JUMP JUMPDEST SWAP3 POP DUP3 DUP3 ADD SWAP1 POP DUP1 DUP3 GT ISZERO PUSH2 0xE42 JUMPI PUSH2 0xE41 PUSH2 0xDE5 JUMP JUMPDEST JUMPDEST SWAP3 SWAP2 POP POP JUMP JUMPDEST PUSH1 0x0 PUSH1 0x60 DUP3 ADD SWAP1 POP DUP2 DUP2 SUB PUSH1 0x0 DUP4 ADD MSTORE PUSH2 0xE62 DUP2 DUP7 PUSH2 0xA4D JUMP JUMPDEST SWAP1 POP PUSH2 0xE71 PUSH1 0x20 DUP4 ADD DUP6 PUSH2 0xA90 JUMP JUMPDEST PUSH2 0xE7E PUSH1 0x40 DUP4 ADD DUP5 PUSH2 0xA90 JUMP JUMPDEST SWAP5 SWAP4 POP POP POP POP JUMP JUMPDEST PUSH32 0x506572736F6E616C69747920616C726561647920657869737473000000000000 PUSH1 0x0 DUP3 ADD MSTORE POP JUMP JUMPDEST PUSH1 0x0 PUSH2 0xEBC PUSH1 0x1A DUP4 PUSH2 0xA12 JUMP JUMPDEST SWAP2 POP PUSH2 0xEC7 DUP3 PUSH2 0xE86 JUMP JUMPDEST PUSH1 0x20 DUP3 ADD SWAP1 POP SWAP2 SWAP1 POP JUMP JUMPDEST PUSH1 0x0 PUSH1 0x20 DUP3 ADD SWAP1 POP DUP2 DUP2 SUB PUSH1 0x0 DUP4 ADD MSTORE PUSH2 0xEEB DUP2 PUSH2 0xEAF JUMP JUMPDEST SWAP1 POP SWAP2 SWAP1 POP JUMP JUMPDEST PUSH1 0x0 DUP2 SWAP1 POP DUP2 PUSH1 0x0 MSTORE PUSH1 0x20 PUSH1 0x0 KECCAK256 SWAP1 POP SWAP2 SWAP1 POP JUMP JUMPDEST PUSH1 0x0 PUSH1 0x20 PUSH1 0x1F DUP4 ADD DIV SWAP1 POP SWAP2 SWAP1 POP JUMP JUMPDEST PUSH1 0x0 DUP3 DUP3 SHL SWAP1 POP SWAP3 SWAP2 POP POP JUMP JUMPDEST PUSH1 0x0 PUSH1 0x8 DUP4 MUL PUSH2 0xF54 PUSH32 0xFFFFFFFFFFFFFFFFFFFFFFFFFFFFFFFFFFFFFFFFFFFFFFFFFFFFFFFFFFFFFFFF DUP3 PUSH2 0xF17 JUMP JUMPDEST PUSH2 0xF5E DUP7 DUP4 PUSH2 0xF17 JUMP JUMPDEST SWAP6 POP DUP1 NOT DUP5 AND SWAP4 POP DUP1 DUP7 AND DUP5 OR SWAP3 POP POP POP SWAP4 SWAP3 POP POP POP JUMP JUMPDEST PUSH1 0x0 DUP2 SWAP1 POP SWAP2 SWAP1 POP JUMP JUMPDEST PUSH1 0x0 PUSH2 0xF9B PUSH2 0xF96 PUSH2 0xF91 DUP5 PUSH2 0xA86 JUMP JUMPDEST PUSH2 0xF76 JUMP JUMPDEST PUSH2 0xA86 JUMP JUMPDEST SWAP1 POP SWAP2 SWAP1 POP JUMP JUMPDEST PUSH1 0x0 DUP2 SWAP1 POP SWAP2 SWAP1 POP JUMP JUMPDEST PUSH2 0xFB5 DUP4 PUSH2 0xF80 JUMP JUMPDEST PUSH2 0xFC9 PUSH2 0xFC1 DUP3 PUSH2 0xFA2 JUMP JUMPDEST DUP5 DUP5 SLOAD PUSH2 0xF24 JUMP JUMPDEST DUP3 SSTORE POP POP POP POP JUMP JUMPDEST PUSH1 0x0 SWAP1 JUMP JUMPDEST PUSH2 0xFDE PUSH2 0xFD1 JUMP JUMPDEST PUSH2 0xFE9 DUP2 DUP5 DUP5 PUSH2 0xFAC JUMP JUMPDEST POP POP POP JUMP JUMPDEST JUMPDEST DUP2 DUP2 LT ISZERO PUSH2 0x100D JUMPI PUSH2 0x1002 PUSH1 0x0 DUP3 PUSH2 0xFD6 JUMP JUMPDEST PUSH1 0x1 DUP2 ADD SWAP1 POP PUSH2 0xFEF JUMP JUMPDEST POP POP JUMP JUMPDEST PUSH1 0x1F DUP3 GT ISZERO PUSH2 0x1052 JUMPI PUSH2 0x1023 DUP2 PUSH2 0xEF2 JUMP JUMPDEST PUSH2 0x102C DUP5 PUSH2 0xF07 JUMP JUMPDEST DUP2 ADD PUSH1 0x20 DUP6 LT ISZERO PUSH2 0x103B JUMPI DUP2 SWAP1 POP JUMPDEST PUSH2 0x104F PUSH2 0x1047 DUP6 PUSH2 0xF07 JUMP JUMPDEST DUP4 ADD DUP3 PUSH2 0xFEE JUMP JUMPDEST POP POP JUMPDEST POP POP POP JUMP JUMPDEST PUSH1 0x0 DUP3 DUP3 SHR SWAP1 POP SWAP3 SWAP2 POP POP JUMP JUMPDEST PUSH1 0x0 PUSH2 0x1075 PUSH1 0x0 NOT DUP5 PUSH1 0x8 MUL PUSH2 0x1057 JUMP JUMPDEST NOT DUP1 DUP4 AND SWAP2 POP POP SWAP3 SWAP2 POP POP JUMP JUMPDEST PUSH1 0x0 PUSH2 0x108E DUP4 DUP4 PUSH2 0x1064 JUMP JUMPDEST SWAP2 POP DUP3 PUSH1 0x2 MUL DUP3 OR SWAP1 POP SWAP3 SWAP2 POP POP JUMP JUMPDEST PUSH2 0x10A7 DUP3 PUSH2 0xA07 JUMP JUMPDEST PUSH8 0xFFFFFFFFFFFFFFFF DUP2 GT ISZERO PUSH2 0x10C0 JUMPI PUSH2 0x10BF PUSH2 0x893 JUMP JUMPDEST JUMPDEST PUSH2 0x10CA DUP3 SLOAD PUSH2 0xC89 JUMP JUMPDEST PUSH2 0x10D5 DUP3 DUP3 DUP6 PUSH2 0x1011 JUMP JUMPDEST PUSH1 0x0 PUSH1 0x20 SWAP1 POP PUSH1 0x1F DUP4 GT PUSH1 0x1 DUP2 EQ PUSH2 0x1108 JUMPI PUSH1 0x0 DUP5 ISZERO PUSH2 0x10F6 JUMPI DUP3 DUP8 ADD MLOAD SWAP1 POP JUMPDEST PUSH2 0x1100 DUP6 DUP3 PUSH2 0x1082 JUMP JUMPDEST DUP7 SSTORE POP PUSH2 0x1168 JUMP JUMPDEST PUSH1 0x1F NOT DUP5 AND PUSH2 0x1116 DUP7 PUSH2 0xEF2 JUMP JUMPDEST PUSH1 0x0 JUMPDEST DUP3 DUP2 LT ISZERO PUSH2 0x113E JUMPI DUP5 DUP10 ADD MLOAD DUP3 SSTORE PUSH1 0x1 DUP3 ADD SWAP2 POP PUSH1 0x20 DUP6 ADD SWAP5 POP PUSH1 0x20 DUP2 ADD SWAP1 POP PUSH2 0x1119 JUMP JUMPDEST DUP7 DUP4 LT ISZERO PUSH2 0x115B JUMPI DUP5 DUP10 ADD MLOAD PUSH2 0x1157 PUSH1 0x1F DUP10 AND DUP3 PUSH2 0x1064 JUMP JUMPDEST DUP4 SSTORE POP JUMPDEST PUSH1 0x1 PUSH1 0x2 DUP9 MUL ADD DUP9 SSTORE POP POP POP JUMPDEST POP POP POP POP POP POP JUMP JUMPDEST PUSH1 0x0 PUSH1 0x20 DUP3 ADD SWAP1 POP DUP2 DUP2 SUB PUSH1 0x0 DUP4 ADD MSTORE PUSH2 0x118A DUP2 DUP5 PUSH2 0xA4D JUMP JUMPDEST SWAP1 POP SWAP3 SWAP2 POP POP JUMP INVALID LOG2 PUSH5 0x6970667358 0x22 SLT KECCAK256 SHL ADD SMOD CALLDATACOPY 0x1F 0xB8 SWAP15 0xC7 0xB4 0xDA BLOCKHASH 0xCB 0x1E 0x4B 0xC 0xC1 SELFBALANCE LOG0 0xAF DUP10 0xC6 0x49 MSTORE8 SWAP14 CALLER EXTCODECOPY 0x2D PUSH14 0xED93626C64736F6C634300081200 CALLER "},"methodIdentifiers":{"createPersonality(string,string)":"850c81b3","downvote(string)":"8374d7d5","personalities(string)":"0e90a1e0","upvote(string)":"60bde833","votes(address,string)":"3de87871"}},"storageLayout":{"storage":[{"astId":27,"contract":"contracts/Voting.sol:Voting","label":"personalities","offset":0,"slot":"0","type":"t_mapping(t_string_memory_ptr,t_struct(Personality)10_storage)"},{"astId":33,"contract":"contracts/Voting.sol:Voting","label":"votes","offset":0,"slot":"1","type":"t_mapping(t_address,t_mapping(t_string_memory_ptr,t_bool))"}],"types":{"t_address":{"encoding":"inplace","label":"address","numberOfBytes":"20"},"t_bool":{"encoding":"inplace","label":"bool","numberOfBytes":"1"},"t_mapping(t_address,t_mapping(t_string_memory_ptr,t_bool))":{"encoding":"mapping","key":"t_address","label":"mapping(address => mapping(string => bool))","numberOfBytes":"32","value":"t_mapping(t_string_memory_ptr,t_bool)"},"t_mapping(t_string_memory_ptr,t_bool)":{"encoding":"mapping","key":"t_string_memory_ptr","label":"mapping(string => bool)","numberOfBytes":"32","value":"t_bool"},"t_mapping(t_string_memory_ptr,t_struct(Personality)10_storage)":{"encoding":"mapping","key":"t_string_memory_ptr","label":"mapping(string => struct Voting.Personality)","numberOfBytes":"32","value":"t_struct(Personality)10_storage"},"t_string_memory_ptr":{"encoding":"bytes","label":"string","numberOfBytes":"32"},"t_string_storage":{"encoding":"bytes","label":"string","numberOfBytes":"32"},"t_struct(Personality)10_storage":{"encoding":"inplace","label":"struct Voting.Personality","members":[{"astId":3,"contract":"contracts/Voting.sol:Voting","label":"name","offset":0,"slot":"0","type":"t_string_storage"},{"astId":5,"contract":"contracts/Voting.sol:Voting","label":"upvotes","offset":0,"slot":"1","type":"t_uint256"},{"astId":7,"contract":"contracts/Voting.sol:Voting","label":"downvotes","offset":0,"slot":"2","type":"t_uint256"},{"astId":9,"contract":"contracts/Voting.sol:Voting","label":"about","offset":0,"slot":"3","type":"t_string_storage"}],"numberOfBytes":"128"},"t_uint256":{"encoding":"inplace","label":"uint256","numberOfBytes":"32"}}}}}}